:02000004080EE4
:1000000080CE01209D010E08DB230E0817140E0878
:10001000D9230E0897030E0805620E0800000000A1
:10002000000000000000000000000000B1410E08C8
:1000300095070E080000000061280E08F9440E081C
:10004000B7010E08B7010E08B7010E08B7010E0878
:10005000B7010E08B7010E08B7010E08B7010E0868
:10006000B7010E08B7010E08B7010E08B7010E0858
:10007000B7010E08B7010E08B7010E08B7010E0848
:10008000B7010E08B7010E0879020E08B7010E0875
:10009000B7010E08B7010E08B7010E08B7010E0828
:1000A000B7010E083D460E08B7010E08B7010E084D
:1000B000B7010E08B7010E08B7010E08B7010E0808
:1000C000B7010E08B7010E08B7010E08B7010E08F8
:1000D000B7010E08015D0E08B7010E08B7010E0842
:1000E000B7010E08B7010E08B7010E08B7010E08D8
:1000F000B7010E08B7010E08B7010E08B7010E08C8
:10010000B7010E08B7010E0851460E08B7010E08D8
:10011000B7010E08B7010E08B7010E08B7010E08A7
:10012000B7010E08B7010E08B7010E08B7010E0897
:10013000F5040E08B7010E08B7010E08B7010E0846
:10014000B7010E08B7010E08B7010E08B7010E0877
:10015000B7010E08B7010E08B7010E08B7010E0867
:10016000B7010E08B7010E08B7010E08B7010E0857
:10017000B7010E08B7010E08B7010E08B7010E0847
:10018000B7010E08B7010E08DFF80CD000F03CF8FC
:100190000048004757650E0880CE0120064880477A
:1001A00006480047FEE7FEE7FEE7FEE7FEE7FEE75C
:1001B000FEE7FEE7FEE7FEE709450E0857650E0875
:1001C00040EA01039B0703D009E008C9121F08C0D9
:1001D000042AFAD203E011F8013B00F8013B521E59
:1001E000F9D27047D2B201E000F8012B491EFBD2D0
:1001F00070470022F6E710B513460A460446194632
:10020000FFF7F0FF204610BD064C074D06E0E06802
:1002100040F0010394E8070098471034AC42F6D34D
:10022000FFF7B6FF0C6A0E082C6A0E08C94301607E
:1002300070470029816814BF41F0010121F00101DC
:10024000816070470849D1F80423084B1A40D0E96F
:10025000003C43EA0C03D0E902C04CEA000018431A
:100260001043C1F80403704700200140E030FCFF58
:10027000C06C80B2704700000948016811F0040F9B
:1002800005D0016821F00C01016004F02BBDD0F80D
:10029000001221F00C01C0F8001204F023BD000090
:1002A00000200140012303FA01F1002A426814BF33
:1002B000114322EA010141607047000010B4426816
:1002C00091F804C022F4807222F040720B6842EA76
:1002D0000C221A43426082680C4B4C791A40D1E9D7
:1002E00003C343EA0C03D1F808C04CEA440C43EAC8
:1002F0000C031A438260C26A097D22F47002491E0F
:10030000C9B242EA0151C16210BC7047FDF7FFC09B
:1003100030B4072409290DD9C568A1F10A0C0CEBEA
:100320004C0C04FA0CF425EA040403FA0CF32343FE
:10033000C3600AE0056901EB410C04FA0CF425EAFC
:10034000040403FA0CF323430361836BC3F3015CDE
:10035000A2EB0C02921C02EB82024FF01F0C0CFA73
:1003600002FC23EA0C0391401943816330BC7047BF
:100370000029416814BF41F4805121F4805141604B
:10038000704700210160017141718160C1600161AC
:10039000012101757047FEE70549024608780028EB
:1003A00003BF044801230B70002002607047000067
:1003B000ECC00120F0C001200449087800281CBFCF
:1003C00000207047024801220A70704782C0012055
:1003D00050C50120002914BF002A704701618282A4
:1003E0000021C18241680847002101618182C182E8
:1003F0007047002181618183C1837047002914BF48
:10040000002A7047816182830021C1838168084787
:100410000162704770B4002138B346780178731ECA
:100420003144002B18DD421C16F0010F02D112F8E6
:1004300001CF614454784FF0000C5B100AD000BF2C
:1004400012F8025F21445478AC4489B21FFA8CFC44
:100450005B1EF5D1614489B2721E03D410448078CA
:10046000084481B201EB1120C1B270BC084670474C
:1004700010B40246084612680FFA81FC1CFB0CF40B
:100480000B1413FB0341148864438C4224BF10BC3B
:10049000704792F8B040C4EB1161C9B202EB410160
:1004A0004A8810BC0CFB02F14FEAE17C01EB5C4195
:1004B00041F3CF3161F30F0003FB02F1CA1701EBE7
:1004C000524141F3CF3161F31F407047C1B202483E
:1004D000006804F0CFBC0000BCC00120044A002921
:1004E000516814BF084321EA0000506070470000C3
:1004F000002004E070B5094C094D2146284600F063
:10050000F3F8012818BF70BD2146284600F00AF80C
:10051000BDE870400221002000F05EBC20000020F9
:1005200070640240064A904234BF0648064811F003
:10053000005F064A01EA020114BFC1608160704792
:100540001064024000600240006402407D0F7D0F95
:100550000029016814BF41F0010121F0010101608F
:10056000704700002DE9F003016821F001010160EE
:100570000021016041608160C16001612121416110
:10058000434A3D244349904202BF8C60BDE8F003DA
:100590007047414A4FF47465904202BF8D60BDE8D8
:1005A000F00370473D4A4FF47418904202BFC1F8FF
:1005B0000880BDE8F0037047394A4FF074669042F6
:1005C00002BF8E60BDE8F0037047364B364A984252
:1005D00002BFCA60BDE8F0037047DFF8D0C0344BFB
:1005E000604502BFCB60BDE8F0037047314FDFF8D4
:1005F000C8C0B84202BFC1F80CC0BDE8F0037047E4
:10060000DFF8B8904FF03D57484502BFCF60BDE8D6
:10061000F0037047DFF8A8902A49484502BF0C60F4
:10062000BDE8F0037047284CA04202BF0D60BDE852
:10063000F0037047254CA04202BFC1F80080BDE81E
:10064000F0037047224CA04202BF0E60BDE8F003E9
:100650007047204C2049A04202BF0A60BDE8F00369
:1006600070471E4A904202BF0B60BDE8F00370471E
:100670001B4A904202BFC1F800C0BDE8F0037047BA
:10068000184A904208BF0F60BDE8F00370470000B1
:10069000106002400060024028600240406002405A
:1006A00058600240706002403D00002088600240B7
:1006B000400F0020A060024000003D20B8600240D2
:1006C0001064024008640240286402404064024012
:1006D00058640240706402400C6402408864024026
:1006E000A0640240B86402400246084B00209A42CF
:1006F00034BF074A074A11F0005F14BF52681268FE
:10070000054B1A400A4218BF01207047106402408E
:1007100000600240006402407D0F7D0F10B402684B
:100720001B4BD1F80CC01A400B6843EA0C03D1E90B
:1007300005C44CEA040C43EA0C03D1F81CC043EA9C
:100740000C03D1F820C043EA0C03D1F824C043EADB
:100750000C03D1F828C043EA0C03D1F834C043EAB3
:100760000C03D1F838C043EA0C031A430260426913
:10077000D1E90B3C22F0070243EA0C031A43426121
:100780000A6942604A6882608968C16010BC70472B
:100790003F801CF0704770B50446016980890125CF
:1007A00030B1401E0004000CA08118BF002501D00C
:1007B000284670BDB1F90400097A90FBF1F001B24E
:1007C000A06803F0F1FA0120A073F1E7C07B704745
:1007D0008360C0E9001200218173C1737047807B80
:1007E00070470000054902460878002803BF044806
:1007F00001230B700020026170470000C9C0012076
:1008000068C60120C173704770B5044605690022AF
:100810004068114605F012FDB5F90410606803F058
:10082000C3FA0021206803F085FB002211462068EE
:1008300003F0F3FAEA88B5F90210206803F0EDFA44
:10084000E888298848434FF47A71B0FBF1F0411CE5
:10085000A18170BD816A0A6ED268526A896D514366
:10086000426A12784A43D31702EB13421214CB1791
:1008700001EB1341028309144183104670470000C5
:100880002DE9F007826A00234FF0010AD2F860C018
:100890005589DCF80C409CF80880A582A8F1010578
:1008A000002D14DD02F1100418F0010F08BF54F8F8
:1008B000043F002667686D1008D000BF04F10804EB
:1008C0003B44D4E900974E446D1EF7D13344B8F150
:1008D000010403D402EB840464692344BCF8064099
:1008E0009CF808505C43BCF802306B4394FBF3F374
:1008F0000B80818B591A0184838392F85410B2F8CB
:100900005C3002EB810149694B43416A0C784989AB
:100910006343BCF8024093FBF4F3C3EB034393FB44
:10092000F1F1C18392F85400401C82F8540092F80F
:1009300054109CF808300020994208BF82F85400F7
:1009400092F85E1000291CBF4FF0000A90705046CC
:10095000BDE8F0077047806A01218170704770B56B
:10096000846A226E2189D068038A4FF00105994379
:100970002ED1E1680968237913F0010F04BF2388A1
:10098000258007D0416A23884FF0000C5B1C9BB286
:10099000A4F800C0B0F800C01CF0100FB4F810C0EC
:1009A000A1EB0C0C0AD05288C3F1010303FB02C275
:1009B00094F8543004EB83035A6108E052885B1EBC
:1009C00003FB02C294F8543004EB83035A61218282
:1009D000018A11F0010F08BF70BD012103F057FE1D
:1009E0002088B0F5006F04BF84F85E5070BD208889
:1009F000401C208070BD00002DE9F04F856AA5B035
:100A000010202E6E4FF00009CA46F76803900002CE
:100A10000690CDF88C9007F14000E8601020288106
:100A2000688130794C464FF00C0BC84600281CBF3B
:100A300002202390B7F1804F0CD0A7F18040B0F591
:100A400080600FD1DFF8C0824FF02069DFF8BCA2D0
:100A500002242DE0DFF8B8824FF0C069DFF8B4A2BD
:100A6000012425E0A7F18040B0F5006014D14FF4D7
:100A7000006006904FF0080BA5F808B0CDF80CB058
:100A8000A5F80AB007F13C00DFF88C824FF08069CE
:100A9000DFF888A2E8600AE0A7F18040B0F5406086
:100AA00006D1DFF87C82DFF87CA24FF04069022497
:100AB0000121306902F010FF0121480502F000FF1A
:100AC000012140F2FF1002F0FBFE0AA800F07AFCC0
:100AD000308C0A9002208DF82C0000208DF82F0019
:100AE0000AA9F06900F008FC308D0A9002208DF808
:100AF0002C0000208DF82F000AA9706A00F0FCFB82
:100B0000308C0021012804D0491C400889B20128FA
:100B1000FAD12246F06900F037FC308D002101281F
:100B200004D0491C400889B20128FAD12246706AD3
:100B300000F02AFC384603F0CCFD0FA804F0C8F8FA
:100B40000024ADF83C407088ADF84440401E109041
:100B5000ADF83E400FA9384604F07AF80CA803F02F
:100B600033FFADF830407089ADF838000CA9384635
:100B700003F097FE0420ADF830000CA9384603F0CE
:100B800090FEADF830B00CA9384603F08AFE012281
:100B90003846069903F095FD002203213846239B31
:100BA00003F058FE5046FFF7DDFC281DCDF84890B5
:100BB000CDE913804FF00108CDE915484FF40060EE
:100BC000CDE9184080001A9040111B901794400204
:100BD000CDE91C0412A9CDF878805046FFF79EFDA0
:100BE000307D8DF8900003208DF891008DF89240B3
:100BF0008DF8938024A801F0F1FB0121384603F021
:100C000046FD2989384603F042FD01221146384647
:100C100003F0E2FE01223846039903F0DDFE7C6218
:100C20007088611EB1FBF0F0A865F0884CF6CD41EC
:100C30004843C00CA5F85C0001215046FFF788FC32
:100C40000121384603F029FD327A002A04BF25B07D
:100C5000BDE8F08F002002F00F010346002907DDF8
:100C600005EB800C401C5B1CCCF814409942F7DC6F
:100C70009142A4BF25B0BDE8F08F00BF05EB800313
:100C8000401C5C6105EB8003401C5C6105EB80034C
:100C9000401C5C6105EB8003401C5C6105EB80033C
:100CA000401C5C6105EB8003401C5C6105EB80032C
:100CB000401C5C6105EB8003401C5C6105EB80031C
:100CC000401C5C6105EB8003401C5C6105EB80030C
:100CD000401C5C6105EB8003401C5C6105EB8003FC
:100CE000401C5C6105EB8003401C5C6105EB8003EC
:100CF000401C5C6105EB8003401C10315C6191423B
:100D0000BCDB25B0BDE8F08F1004004088600240D5
:100D100010000040A060024010080040B86002408F
:100D2000100C00402860024070B50D4603F024F816
:100D30000E4904460878002803BF0D4801220A70B6
:100D400000200566A0620B4820602878214603F049
:100D500049FA094860600948A0600948E06009480C
:100D6000206109486061204670BD0000EAC0012092
:100D700000CA01205F090E08F9090E0857090E087C
:100D800055080E0881080E088D0D0E08806A4FF672
:100D9000FF730029006EC268B8BF494289B2B8BF6C
:100DA000591A40884843B0FBF3F080B25062704754
:100DB000034603480A461946006804F095B8000047
:100DC000BCC00120034B0A4601B21B68184604F060
:100DD0009DB80000BCC00120024A52F82000026801
:100DE000104700007CC60120024B53F82000036826
:100DF0001847000084C00120B0F5807F04BF0820A0
:100E0000704720DC102804BF042070470EDC012846
:100E10003ED0022804BF01207047042804BF0220EE
:100E20007047082804BF0320704731E0202804BF22
:100E300005207047402804BF06207047802804BF63
:100E40000720704724E0B0F5805F04BF0C20704796
:100E50000FDCB0F5007F04BF09207047B0F5806F4C
:100E600004BF0A207047B0F5006F04BF0B20704725
:100E70000EE0B0F5005F04BF0D207047B0F5804F65
:100E800004BF0E207047B0F5004F04BF0F2070471D
:100E90000020704710B504460420A4F82402E0683E
:100EA000FFF7A2FA002084F81E0210BD70B50A46B2
:100EB000C160044601461046FFF7AAFA002584F8EF
:100EC0001251E068FFF795FAE068FFF78DFA84F8B1
:100ED0001E5270BD0B4A014600231078002803BF44
:100EE00009484FF0010C82F800C00020A0F824321D
:100EF000A0F818318A68C0F82022C968C0F8141117
:100F00007047000080C0012014C20120806800F0FA
:100F10001BBF806800F024BF81607047D1E90323C4
:100F200049690260C0E90131704700687047006894
:100F300070474361C0E903127047000010B50446D2
:100F400000EBC4021548002100EB82021448116036
:100F50005160D1601161918351619161D18350F8E9
:100F6000240001F0FBFA0F48002150F8240001F0A2
:100F7000F5FA0D4850F8240002F047FF0B4850F8EE
:100F8000240001F05EFC0A4850F82400002808BF45
:100F900010BDBDE8104000F0DDB8000050C10120D8
:100FA00024C0012028C001201CC0012034C0012021
:100FB00050C001200A4810B5012181600949016033
:100FC0000168094A91421CBF006880470021074818
:100FD000016041608160064AC2600161416110BDEB
:100FE0000030024033BB55AA0AC34C30F8C0012080
:100FF00099420E080A4810B5012181600949016033
:101000000168094A91421CBF0068804700210748D7
:10101000016041608160C16001610549416110BDAD
:101020000030024033BB55AA0AC34C30F8C001203F
:1010300035100E080A4810B5012181600949016088
:101040000168094A91421CBF006880470021074897
:101050000160074A42608160C1600161416110BD69
:101060000030024033BB55AA0AC34C30F8C00120FF
:10107000B5420E080A4810B5012181600949016096
:101080000168094A91421CBF006880470749084827
:101090000160002141608160C1600161416110BD5A
:1010A0000030024033BB55AA0AC34C307D420E08C3
:1010B000F8C001202DE9F04146690D46044600893B
:1010C000318848434FF47A71B0FBF1F7608910FB27
:1010D00000F1A08910FB00F0084400F0B1FB0246CB
:1010E000E081B0F5004FA8BF47F6FF72B91A20683B
:1010F00001F0C2F90028A7BF28142082B4F910100B
:101100000844B6F904108142C8BF084660F31F4581
:10111000B16800FB101000F093FB0646606801F018
:10112000EEF900FB06F77942606801F01DFA3946D6
:10113000606801F01BFA29B2B142C8BF66F30F051F
:1011400005DC70428842C4BF704260F30F05284638
:10115000BDE8F08170B5044600250068294601F01D
:10116000FDF9C4F80A50E581258270BD30B44269AA
:10117000B0F90A300DB292F80EC003FA0CF45B1B02
:10118000E31A43FA0CF34381B0F90C30927BA3EBE2
:10119000214103FA02FCACEB01011141818130BC19
:1011A00070474169C0894FF47A7210FB02F00988D8
:1011B000B0FBF1F080B27047008970472DE9F04133
:1011C0000E4C0546476920680E4680476068804798
:1011D00078882881A0688047E06880473068286068
:1011E00060688047A0688047706868606069804771
:1011F000606880472068BDE8F0410047F8C00120E2
:10120000054902460878002803BF044801230B70F3
:101210000020426170470000F4C0012064CA012030
:101220000181704710B50021A0F8241290F81E32F9
:101230000122E3B980F81C1180F81D1180F81E11FD
:101240005FF07F0300EB020C921C8CF81E118CF8EF
:101250001F115B1EF6D1012180F81E12C36800F534
:101260008E714FF481721846FFF7B4F802221046CF
:1012700010BD00002DE9F04104461D4694F81231DE
:101280000120002B18BFBDE8F0812174A5F1010CED
:101290006574BCF1000F17DD501E002115F0010F21
:1012A00003D110F8011FA174012143785FEA6C0C8F
:1012B0000AD000BF661810F8027FB3744378891C07
:1012C000F774BCF1010CF5D1681E02D4115C204406
:1012D000817404F11000FFF79DF8611988740220F1
:1012E00084F81201607C04F11001C21CE068FFF771
:1012F00085F80220BDE8F0812DE9F00100220125EA
:101300005FF00306D1F800C005FA02F30CEA030C03
:101310009C4533D107684FEA420C06FA0CF4A74308
:1013200007600F79D0F8008007FA0CF747EA080742
:1013300007600F79012F18BF022F14D18768A743C8
:1013400087604F79D0F8088007FA0CF747EA08075A
:101350008760476827EA0303436043688F799740B3
:10136000BFB23B434360C368A343C360CB7903FA76
:101370000CF3D0F80CC043EA0C03C360521C102AD3
:10138000C0D3BDE8F00170474B07DB0E9A40C90897
:1013900000EB8100016A4FF00F0C0CFA03F3994344
:1013A0000162016A11430162704781B041F48032E9
:1013B0000092C261C1610099C161C169C0690090B8
:1013C00001B070474FF6FF7101600021017141715A
:1013D0008171C1717047002A14BF01834183704736
:1013E00001460248006803F0A3BD0000BCC0012014
:1013F0000148006802F0D1BD18C0012010B504F00A
:1014000015FA002808BF10BD0022BDE810400321D6
:101410001046FFF7E9BCFEE710B5214982B01F482E
:101420000860C01401F012F81E49081F00F03EFECB
:101430001D484FF4FA610068B0FBF1F0411EB1F1B4
:10144000807F2AD24FF0E02041611849F02281F8D4
:10145000142D0024846107220261802081F8140D7C
:10146000A020491E81F8140D11490E48CDE9000154
:10147000031F011D0122022004F00EFC002004F0D5
:10148000AFF90C49A1F108030860A1F10C02012198
:10149000009404F092F902B010BDFEE76100002054
:1014A000B8C00120B4C001205CC001200FE000E002
:1014B000EC670E08BCC001202D4A2E4910B42E48FE
:1014C0006FF00203914223D0B0F1004F42D2181ABC
:1014D0004FEAE07C00EB9C74A010C0F1000CBCF162
:1014E000000F15DD101F091F14F0040F03D050F872
:1014F000042F41F8042F5FEA6C0209D0D0F804C031
:10150000C1F804C050F808CF41F808CF521EF5D1F9
:101510001B481A4A0021B0F1004F22D2181AC317F3
:1015200000EB937C4FEAAC004342002BDCBF10BCC5
:101530007047101F1CF0040F18BF40F8041F5A100A
:1015400004BF10BC7047416040F8081F521EFAD11A
:1015500010BC704752F804CB41F804CB001FF9D1FE
:10156000D6E742F8041B001FFBD110BC70470000F7
:101570005C000F0800C001201001000010C1012014
:10158000700D00000148006804F022B9BCC00120C1
:1015900010B50446406802F090FC0146A068016165
:1015A00010BD0068012102F011BD10B5040008BF94
:1015B00010BD207E012818BF10BD217B002001290D
:1015C00004D0022910D003291ED026E0A16881F89A
:1015D00022000121606802F0ADFCE28AB4F90E102D
:1015E000606802F01AFC0CE0A16881F8220000217A
:1015F000606802F09FFCE28AB4F91010606802F0A3
:101600000CFC50B1022009E0A168012081F8220001
:10161000A068D4F812100161F4E70320207610BD11
:1016200001230373C181C28203764376704702238C
:1016300003730182C2820121017600214176704745
:10164000006802F07DBC10B5406802F050FCBDE8B7
:10165000104002F07DBB407E704780680068704794
:101660008068406870478068C0687047806800691B
:101670007047027B0021012A08BFB0F90E1008460E
:101680007047406802F025BC006802F086BC8068A4
:10169000B0F91C00704780688069704780684069B5
:1016A00070478360C0E9001200210173C18101828B
:1016B000C182017670470146007E0022022808BFE1
:1016C000012305D01346032808BF4FF0010C01D0B9
:1016D0004FF0000C53EA0C0318BF0A767047000065
:1016E000064B02461978022928BF002004D204487C
:1016F00000EB4110491C1970C261704700C0012005
:1017000010C1012003220273418209148182012148
:10171000017600214176704780684182704710B59C
:1017200004460068032102F051FC012804BF012196
:10173000217610BD0068072102F048BC014661F324
:101740000F0044F6E61211FB02F244F6E61311FB19
:1017500023F10A4411444942C913B1F5004FA8BF0F
:1017600047F6FF7104DA11F5004FB4BF054909B21D
:1017700061F31F4011F5004F04BF48F2010161F30E
:101780001F4070470080FFFF70B50546084600F017
:1017900073F82AB203B212FB03F14FEA254C051489
:1017A0001CFB05F0081AC0131549B0F5004FA8BF7F
:1017B00047F6FF7004DA10F5004FB4BF084600B2D8
:1017C00060F30F040F4E10F5004F08BF66F30F04CF
:1017D00002FB05F00CFB0300C013B0F5004FA8BFDF
:1017E00047F6FF7103DA10F5004FA8BF01B220469B
:1017F00061F31F4011F5004F08BF66F31F4070BD35
:101800000080FFFF0180FFFF10B50446084600F08E
:1018100033F814FB00F12214031412FB03FC61449F
:1018200041F3CF3C29466CF30F0114FB03F312FB89
:1018300000F0C01A40F3CF3060F31F41084610BDDE
:10184000031E4FF00002DCBF00207047B3F5001FFD
:10185000D4BF80214FF4005193FBF1F0084400EB1A
:10186000D0704010884208BF7047511CCAB2014670
:10187000062AF1D37047000000F50041890911F4F0
:10188000407C00F50041C1F387121749C2F1FF0304
:1018900017D0BCF5807F1DD0BCF5007F0AD0BCF509
:1018A000407F18BF704731F8133031F8121063F3DE
:1018B0001F400DE031F8122031F8131062F31F4081
:1018C0000FE031F8122031F81310524262F31F403A
:1018D000494206E031F8133031F812105B4263F3ED
:1018E0001F4061F30F0070470C680E0810B50446E6
:1018F000406C8C460160C0E9413221466046FFF7EA
:101900000BFB646C2068FFF7C5FAFF2084F8030125
:10191000221D04F203132068BDE810400021FFF7E8
:1019200081BC000010B50C4603F05AFF054B197836
:10193000002903BF044A012119700022C2F80C419A
:10194000426410BD81C0012040C401202DE9F04354
:101950000026456C8FB014460F4681465FEA511849
:1019600013D0A8F10102002103F08AFF002808BF6C
:101970000B2000F0CF81D5F8080107F01F0720B138
:10198000A8F10102002103F07BFF0B2F80F0C18141
:10199000DFE807F0F70682F6F5F5F4F3F2F1F00070
:1019A000277805208DF83000182F59D00FDC3846E5
:1019B0006ED2DFE807F0316D6D3F6D5555555555C9
:1019C0005555555555555E5E6D6D55555555552FAB
:1019D00046D013DC472F4CD008DC1C2F31D01D2FF4
:1019E00037D0412F3CD0462F43D051E0482F40D034
:1019F0004F2F1CBF532F542F32D049E0A7F1560070
:101A0000102845D2DFE800F02C2C2C2C443544441F
:101A10004444442C44442C2C647839462246D5F85E
:101A2000080103F02DFF22463946484603F028FFFF
:101A3000064698E001466278484603F021FF0646D4
:101A400091E062780021D5F8080103F014FF012627
:101A500089E062780121D5F8080103F00CFF81E0EC
:101A60006078A17800EB01223946484603F008FF70
:101A7000E5E76078A178227900EB0120E17809049C
:101A800001EB026142183946484603F0F9FED6E7F9
:101A900002208DF8300066E0217803208DF83000B8
:101AA000662980F03981DFE801F0337D33337D6DC5
:101AB0006D6D6D6D6D6D6D6D6D6D6D6D6D6D6D6D56
:101AC0006D6D6D6D6D6D444F7D6D6D6D336C6C6CBA
:101AD0006C6C6C6C6C6C6C6C6C6D6C6C6C6C6C6C45
:101AE0006C6C6C6C6C6C6C6C6C6C6C6D6C6C6C6C35
:101AF0007D7D7D6D6D6D6D337D6D6D6D6D6D6D6D10
:101B00006D6D6D6D337D6C6D6D6D6D6D6C6C6D6D32
:101B1000484603F00DFA0090B0F1FF3F00F0FC8062
:101B200001236A46F0212868FFF7A4FB0FB0BDE847
:101B3000F083D5F80801002800F0EE80002103F0C2
:101B4000EFF98DF80000EBE7D5F8080158B1012155
:101B500003F0E6F98DF8000001236A46F0212868B9
:101B6000FFF788FB0126002E0BD000231A46F02138
:101B70002868D5E0BFE09CE06CE058E02AE0C8E0CF
:101B800020E085E0484603F0D3F90090B0F1FF3F34
:101B90007ED002236A46F0212868FFF76BFB0FB066
:101BA000BDE8F083484603F0C3F90090B0F1FF3F71
:101BB0006ED004236A46F0212868FFF75BFB0FB064
:101BC000BDE8F083217807208DF83000484603F007
:101BD00051F934E70020029003900490059006909C
:101BE0000790089002AA099005E01318401CC0B2A3
:101BF000D9701D2804D2D5F80411095C0029F4D14C
:101C0000D5F80411421D20238A5C8DF80820C21DDE
:101C10000930895C8DF80910D5F8041102AA085C16
:101C20008DF80A00F0212868FFF724FB9DE7207952
:101C30006179E37800EB012082B22078617800EBD3
:101C40000120A178090401EB03610144484603F037
:101C50004BF9F4E60DA8009021780EAB01AA484696
:101C600003F086FDBDF9380000EB400040008DF820
:101C70002800010A8DF82910010C8DF82A10000E99
:101C80008DF82B00BDF834008DF82C00000A00E020
:101C900042E08DF82D00BDF804008DF82E00000AFA
:101CA0008DF82F0008230AAAF0212868FFF7E2FA2E
:101CB00032E0E079227AA37800EB022082B26078E9
:101CC00094F804C000EB0320E37821781B0403EBB5
:101CD0000C631844154B94F806C083FB0030A0EB4E
:101CE000E07003B2607900EB0C2000B2009048462F
:101CF00003F0B2FFA3E620786178E27800EB0120E0
:101D000001B2A07800EB022002B2484603F0A6FD23
:101D10002BE701208DF8300001230CAAFF21286851
:101D2000FFF7A8FA0FB0BDE8F0830000ABAAAA2A1B
:101D300008B5406C0A218DF80010006801236A463E
:101D4000FF21FFF797FA08BD08B5406C08218DF810
:101D50000010006801236A46FF21FFF78BFA08BDD7
:101D600008B5406C09218DF80010006801236A460F
:101D7000FF21FFF77FFA08BD10B5446C2068FFF71C
:101D800089F8FF2084F80301221D04F20313206860
:101D9000BDE810400021FFF745BA006B7047406C6A
:101DA0007047006C7047C068704780687047406833
:101DB0007047C06B70474069704700687047C069E2
:101DC000704780697047406A7047806A7047C06A90
:101DD00070470FB44C2210B503A9FEF7F1F910BCFF
:101DE0005DF814FB084B02461978022928BF002031
:101DF00007D201EB8100DFF814C0491C0CEB001086
:101E00001970C2647047000058C0012074C10120DD
:101E1000F8B59D4C608800281CBF6088401E40F0CB
:101E20001D810020ADF8000098486946006801F067
:101E30004BFF06469648006800F062FA9548006835
:101E400002F0ABF8132880F00881DFE800F00A56B2
:101E5000961892B9D2F2F0EFB8B8B8606C77313E0C
:101E60004A00A06CFEF7B2FC002800F0F6800021CA
:101E7000A06CFEF7C7FC87480321006814E0A06C43
:101E8000FEF7ADFC48B18448006800F0E4FC142083
:101E9000A08080481021006806E00121A06CFEF7B8
:101EA000B1FC7C480121006802F090F800F0D5B840
:101EB000A088002840F0D18077480021006800F019
:101EC000ADFB744811210068EEE7734801210068FA
:101ED00000F0A4FB002800F0C0806E4812210068CA
:101EE000E2E76A48006801F02EFF6A4804210068B2
:101EF00002F06CF8012862D133E06748006800F016
:101F0000AAFC1420A08063480D210068CCE7A088BB
:101F1000002854D160480021006800F07FFB5D4834
:101F20000E210068C0E75C480121006800F076FBE4
:101F3000002844D057480F210068B5E757490120D1
:101F400081F822005648616C006801F0F7FFA06C30
:101F5000FEF75AFC4F480221006802F037F80128CA
:101F60007BD10020FEF7EAFF4B48006800F06EFCD2
:101F700073E048480521006896E7A06CFEF70BFC6B
:101F800090B14548006800F05CFC454D012128688F
:101F900001F0D0FF05F11C000168286801F0CEFFB8
:101FA000281F072100687FE7002060F30F053C48E9
:101FB000006801F0FBFE60F31F45384805614CE006
:101FC00038480068FFF7F1FA344D95F8220060B9FF
:101FD0003348006801F0EAFEA8832882324800688E
:101FE00018B12969FFF766F828612A4806210068B8
:101FF0005AE72C480068FFF7D8FA284D95F82200D8
:1020000060B92748006801F0D1FEA88328822648DD
:10201000006818B12969FFF74DF82861EEB91D482D
:1020200000222021006801F096FF16E028E012E06F
:10203000FFE71948006800F004FC0020FEF77EFF6F
:102040001348006800F08EF94FF44870E0801148A2
:102050000821006828E7E08870B103206080A0882C
:1020600010B1A088401EA080E088002808BFF8BDFD
:10207000E088401EE080F8BD06480921006813E7AB
:102080000448002100680FE704C0012038C0012087
:1020900040C0012018C0012034C0012050C10120DF
:1020A0001CC0012010C0012050C001202DE9F34FB9
:1020B00097B08248FEF770F9814908608148FFF7C0
:1020C0009FF8814E81493060A1F18E0001F0D2F875
:1020D000A6F11C01086000F0CBFA01F01DFB01F035
:1020E00063FFA6F13807386001F059FF784800F027
:1020F0000DFAA6F1300BCBF8000000F01FFA75497D
:10210000A1F10C00FEF710FEA6F11805286001F001
:1021100030FE714801F0FEFEA5F11C0420602A6823
:10212000DBF8001001F0E5FE6C4901F5897004F060
:102130009BF9A4F11808C8F8440001F01AFE684899
:10214000FEF750FBC8F848002B682168D8F84420F7
:10215000FEF73EFB634800F0D9F904F1080108607E
:1021600000F0ECF9604800F0D1F904F10C010860CE
:1021700000F0E4F95D49A1F5A97001F02BFD04F12F
:10218000100804F11801C8F80000096804F043F8C9
:10219000574800F01FFA04F12401DFF85891086055
:1021A000CDF85090D8F80010159114A900F0F0F86F
:1021B0005149A1F10E0004F099F904F114010860ED
:1021C000091D096802F044FE4C4800F09FF904F133
:1021D000380ACAF8000000F0B1F9DAF800001290ED
:1021E000DBF80000139012A93068FEF7E7FF01202A
:1021F00089F82200206801F060FEC9F81000002074
:10220000FEF79CFE0020FFF76BFAA4F10C09394B96
:10221000C9F8000022683968FFF743FA206801F026
:102220005EFED9F80030014600221846FFF7F8F9A3
:102230001798D9F8001001600020FFF7D3FDA4F132
:102240000809C9F800001090DBF80000119004F1B3
:102250000800D5F800C00268001D3D6803680C3016
:10226000A6F12007A6F1100B0168DAF800A0246897
:102270003F68D8F80080DBF800B03668DDF800E091
:102280000020CDF800A0CDE90110CDF814E00897AA
:10229000CDE903C0CDE90980CDE90B0BCDE90D6097
:1022A0000F90CDE90645DDE91001FFF792FD189882
:1022B000D9F80010016019B0BDE8F08FD4660E089F
:1022C00044C0012088670E0850C00120F4650E0844
:1022D0007C650E0888660E08DC650E086A650E08C7
:1022E000B4660E0894650E08AC650E08C0660E084C
:1022F00078650E0850C1012072650E08C4650E088D
:1023000070B5816800F10C048847B4F8001124F816
:102310001100B4F80011A4F80211491C89B2A4F804
:102320000011802924BF0021A4F800112146B4F92E
:102330000020B4F9025000234FF03F0C31F9046F34
:102340002A44B1F902503344BCF1010CF6D1D11842
:10235000B4F9FE201144CA1701EB5261C911A4F867
:10236000041170BD70B5054600F10C044FF4807186
:102370002046FDF73EFF0020A4F80001A4F802016A
:1023800028466968BDE870400847B0F910017047F9
:1023900070B502680446904704F10C054FF4807153
:1023A0002846FDF726FF0020A5F80001A5F8020148
:1023B00020466168BDE8704008470000044908787D
:1023C00000281CBF00207047024801220A70704795
:1023D000CAC001208CC60120FEE7704710B4C27845
:1023E00001784FF0010C12B3174A12680F2402F45F
:1023F000E062C2F5E062C2F30722C2F10403D440F6
:10240000427801F1E0219A40837823401A43120177
:1024100081F80024007800F01F010CFA01F1400956
:10242000800000F1E020C0F8001110BC704701F0FE
:102430001F000CFA00F04909890001F1E021C1F800
:10244000800110BC704700000CED00E0034940F033
:10245000FD7040F080600860704700000CED00E007
:102460008069002818BFB0F904007047806900280F
:1024700018BF81807047000070B4B0F900200024BC
:1024800002FB01F6B0F90220B0F910C0B0F9123029
:10249000002A04BF0021416014D045684A43A918AE
:1024A00005D5002DC4BF002A6FF0004103E0002DC8
:1024B000BCBF002A0F4982688A42A5BFC268914208
:1024C0004260416042694168957D127D41FA05F59F
:1024D00046FA02F22A446245C4BFACEB02046246EB
:1024E00003DC9342C4BF9C1A1A462144416070BC6D
:1024F00010B2704701000080B0F9020070474069D7
:10250000C0887047B0F9000070470000094B0246D0
:102510001978082928BF002007D2C1EBC100DFF8D5
:1025200018C0491C0CEB800019700021C0E905217E
:1025300070470000CBC00120A4C7012041690A8870
:1025400002804A884280002242608A688260CA68AB
:10255000C2600A8A0282498A41827047416070479C
:102560004180704701807047C1607047816070474B
:1025700070B5D0F8140102688468D168526911FB03
:1025800002F311FB3231CA1701EB12410D144068FE
:1025900003F03BFE216848434FF4167190FBF1F0C5
:1025A000684300EB40000649400081FB00108110A9
:1025B000A1EBE070C11700EB1140001470BD0000EA
:1025C000676666667047D0F814010A680260496859
:1025D0004160704710B50446FFF7F0FE084A1178D5
:1025E000002903BF07490123137000218C60C0F844
:1025F000141105490160054941600549816010BD1C
:10260000CCC0012084C80120C7250E08C5250E08AE
:1026100071250E08C2691047C16B084770B50446A2
:1026200000F14406002511B101290CD019E0002267
:1026300080F85020C1688847A06D4088F081A06D67
:10264000408870B909E0F089002808BF012508D04A
:10265000401E0004000CF08103D1616920468847C8
:102660000125284670BD826B104782681047000024
:10267000826D054B12885A43120CA0F844200022A8
:1026800080F8502041680847D07603000749024689
:1026900000230878002803BF05484FF0010C81F89B
:1026A00000C000200364826570470000CDC0012097
:1026B00090C8012030B4B0F844300AB202FB03F2F3
:1026C000836D4FEA214100F144041B8801FB03F1B3
:1026D0004FEA4101C1F1000101EB0203A1EB02024B
:1026E00003EBD37302EBD2725B104FEA620251D557
:1026F000002A19DA04216180D0F858C0991ACD1740
:10270000BCF800C001EB95314FEA9C0C0CEBA14CDE
:10271000D11702EBD1310CEB6142D91703EBD13168
:10272000ACEB6143016B86E0002919DC0323638075
:10273000D0F858C08B1ADD17BCF800C003EB9533F6
:102740004FEA9C0C0CEBA34CD31702EBD332CB1704
:102750000CEB624201EBD331A2EB6143C16A6AE048
:1027600002226280D0F858C05A1AD517BCF800C0AF
:1027700002EB95324FEA9C0C0CEBA24CDA1703EB00
:10278000D232ACEB6243CA1701EBD23103EB6142A8
:10279000816A50E0002A19DB01216180D0F858C01D
:1027A000991ACD17BCF800C001EB95314FEA9C0C8B
:1027B0000CEBA14CD11702EBD1310CEB6142D917D4
:1027C00003EBD131ACEB6143416A34E0002919DC01
:1027D00005226280D0F858C05A1AD517BCF800C03C
:1027E00002EB95324FEA9C0C0CEBA24CDA1703EB90
:1027F000D232ACEB6243CA1701EBD23103EB614238
:10280000416B18E000236380D0F858C08B1ADD17A5
:10281000BCF800C003EB95334FEA9C0C0CEBA34CC7
:10282000D31702EBD332CB170CEB624201EBD3315F
:10283000A2EB6143016AA4F804C0E280238130BCAA
:102840000847002280F85020C1680847002280F81D
:10285000502001690847012280F85020816908470B
:1028600070470000CAB207230D48C1F30721092AA7
:102870000BD9D0F80CC00A3A02EB420293402CEA82
:10288000030391401943C1607047D0F810C002EBB8
:10289000420293402CEA03039140194301617047BF
:1028A000002001402DE9F05FC46D4FF0000A804622
:1028B000D4F82890D9F82C50C4F800A0C4F804A08B
:1028C000C4F808A084F817A0288C20F0550020F444
:1028D000A85028846148C8F8080099F80B00604F98
:1028E000C003E06099F81300C0032061D8F85C00D1
:1028F000866A3868D6F82CB020F00C003860D7F81B
:10290000000120F00C00C7F800010121584601F039
:10291000BEFE01221146584602F05EF801215846DB
:1029200001F0C4FE96F85800022811D1B6F86010E4
:102930000122F06DFEF74FFDB6F86C100122B06E6B
:10294000FEF749FDB6F878100122706FFEF743FDDF
:10295000E07D4FF0100B102808D2A88910F0010F6D
:1029600008BF84F817B0E07D1028F6D384F817A0CC
:102970003C48C8F8080099F81B00C003E06099F8CB
:102980001B00C0032061D8F85C00866A3868D6F85E
:102990002C9020F00C003860D7F8000120F00C00DB
:1029A000C7F800010121484601F071FE01221146DD
:1029B000484602F011F80121484601F077FE96F8EA
:1029C0005800022811D1B6F860100122F06DFEF710
:1029D00002FDB6F86C100122B06EFEF7FCFCB6F8F2
:1029E00078100122706FFEF7F6FCE07D082808D20F
:1029F000A88910F0010F08BF84F817B0E07D0828FF
:102A0000F6D32068C00820606068C0086060A068D5
:102A1000C008A0601448C8F80800288B20F00800FF
:102A200020F400602883A88B20F0080020F40060C8
:102A3000A883A08A6863A08AA863A08AE863298B18
:102A400040F6080001432983A98B0843A883288CFA
:102A500040F2555108432884BDE8F09F9D2B0E0895
:102A600000200140D12B0E089D2A0E0810B5094CFC
:102A7000204661630221FDF7D9FB07490120086068
:102A80002046016811F0020FFBD0BDE81040FDF7B1
:102A9000EFBB0000002001407801244230B4C26D39
:102AA0000023D2F820C0CCF8003093753A4C90F84F
:102AB0004600DFF8E0C0650C062824BF30BC704734
:102AC000DFE800F0264A4A030326DCF83C001368DE
:102AD000A3EB400010F5004FD8BF0C8004DDB0F52B
:102AE000004FACBF0D800880DCF83C015268A2EBBF
:102AF000400010F5004F02DC4C8030BC7047B0F550
:102B0000004F02DB4D8030BC7047488030BC7047BE
:102B1000DCF83C005368A3EB400010F5004FD8BF31
:102B20004C8004DDB0F5004FACBF4D804880DCF830
:102B30003C019268C2EB4000B1F90220801AB0F566
:102B4000004FA2BF0D8030BC704710F5004FD4BFBE
:102B50000C80088030BC7047DCF83C001368A3EBA5
:102B6000400010F5004FD8BF0C8004DDB0F5004FD9
:102B7000ACBF0D800880DCF83C019268C2EB4000DD
:102B8000B1F90020801AB0F5004FBBDA10F5004F04
:102B9000BBDCB1E7002001400180FFFFC06D0021D8
:102BA000026A11608175C17D102928BF70470749ED
:102BB0000268CB6B1A4402604268D1F83C111144A0
:102BC0004160C17D491CC175704700000020014073
:102BD000C06D0021026A11608175C17D082928BF7E
:102BE0007047064A8168D36B19448160D2F83C2152
:102BF00011448160C17D491CC175704700200140AE
:102C000010B4C16D00F1440401208B6ADA6A887542
:102C10001C48D0F800C00CF00C0CBCF1080F05D01B
:102C2000BCF1000F08BFDB8806D013E0036803F097
:102C30000C030C2BFAD10DE0D2F824C09C45FBD339
:102C4000036803F00C03082B04D1036803F00C03A2
:102C50000C2BFAD1CB698360CB69C0F80831138C97
:102C600043F4805313848A6982608A69C0F808211A
:102C7000CA6882630969C0F8381104F1100010BCF9
:102C800070470000002001402DE9F04F82469FB0C0
:102C9000DAF85810DAF85C7044300988BC6A4908E0
:102CA000B98261794FF00109012914BF0121002186
:102CB0000174FE48016841F48051016001218015D2
:102CC00000F022FE0121480200F01EFE012140F228
:102CD000FF1000F0F5FD012000F02EFEE16AA1F1E9
:102CE0008040B0F580304FF0010105D1012000F0A7
:102CF0000BFEEF48386206E0022000F005FEED48CA
:102D00004FF0030938620EA8FEF75CFB208A03250A
:102D10008DF83C5000260E908DF83F600EA9E068BB
:102D2000FEF7EAFA218AE068FEF73FFB208B0E905F
:102D30008DF83C500EA96069FEF7DEFA218B6069C0
:102D4000FEF733FB208C0E908DF83C500EA9E06905
:102D5000FEF7D2FA218CE069FEF727FBA08FFEF781
:102D60004BF8A36B01464A461846FEF70DFBB4F834
:102D70004800FEF741F8636C01464A461846FEF7E4
:102D800003FBB4F85400FEF737F8236D01464A46BA
:102D90001846FEF7F9FA8DF83E608DF83F60022084
:102DA0008DF83C008DF83D00A08F0E900EA9A06B11
:102DB000FEF7A2FAB4F848000E900EA9606CFEF778
:102DC0009BFAB4F854000E900EA9206DFEF794FA09
:102DD000A18FA06BFEF7E9FAB4F84810606CFEF71B
:102DE000E4FAB4F85410206DFEF7DFFA94F85800B6
:102DF0004FF00108012802D0022843D06BE0B4F85C
:102E00006000FDF7F9FFE36D01464A461846FEF7FC
:102E1000BBFAB4F86C00FDF7EFFFA36E01464A461B
:102E20001846FEF7B1FAB4F87800FDF7E5FF636FD6
:102E300001464A461846FEF7A7FAB4F860000E901D
:102E40000EA9E06DFEF758FAB4F86C000E900EA9CA
:102E5000A06EFEF751FAB4F878000E900EA9606FDC
:102E6000FEF74AFAB4F86010E06DFEF79EFAB4F887
:102E70006C10A06EFEF799FAB4F87810606FFEF748
:102E800094FA28E08DF83C80B4F860000E900EA90A
:102E9000E06DFEF731FAB4F86C000E900EA9A06E4A
:102EA000FEF72AFAB4F878000E900EA9606FFEF7CC
:102EB00023FAB4F86010E06DFEF777FAB4F86C10FE
:102EC000A06EFEF772FAB4F87810606FFEF76DFA34
:102ED00002208DF83C0094F87C00C0B1B4F8840066
:102EE000FDF78AFFD4F8803001464A461846FEF7BF
:102EF0004BFAB4F884000E900EA9D4F88000FEF7C7
:102F0000FBF9B4F88410D4F88000FEF74EFADAF832
:102F10005C90D4F82CB05846D9F8285001F0D9FB71
:102F200010A801F0D5FE287910A9401EADF8400088
:102F30002020ADF84200B9F8140011904FF48070D1
:102F4000ADF8480095F826008DF84A00584601F083
:102F50007FFE04A801F05AFE6020ADF81000ADF825
:102F60001280B9F8140040080690A88EADF81C0035
:102F7000E88FADF8200095F85800012818BFADF88B
:102F8000146010D004A9584601F02EFDB5F8400099
:102F9000ADF81C00B5F84A00ADF8200095F85800CF
:102FA000012814D10BE00420ADF81400B5F85A0044
:102FB000ADF81E00B5F86200ADF82200E2E7B5F802
:102FC0006400ADF81E00B5F86E00ADF8220004A94B
:102FD000584601F043FDB5F84C00ADF81C00B5F8BB
:102FE0005600ADF8200095F85800012807D1B5F833
:102FF0007000ADF81E00B5F87A00ADF8220004A903
:10300000584601F07AFD7020ADF81000ADF81C6054
:10301000ADF82060DAF85C0004A9808A401F0690B1
:10302000584601F0B6FD0821584601F011FD08216F
:10303000584601F058FD0821584601F0A4FD08212A
:10304000584601F0D9FD0AA801F018FB4FF4006AB8
:10305000ADF828A04FF48060ADF82A008010ADF8DC
:103060002C00A88C4008ADF82E0095F87C0090B19B
:103070004FF48050ADF83000B5F87E00ADF8320066
:10308000ADF834608021584601F004FB0122802114
:10309000584601F0A1FC0AA9584601F0DDFA1021BA
:1030A000584601F0BDFD0621584605E03038024083
:1030B000300420423084204201F0C0FD01215846F6
:1030C00001F0E6FB287A022803D06879012810D0A5
:1030D00015E0687A012804BF95F82600032808D176
:1030E000ABF830800121584601F0D2FB0320ABF849
:1030F0003000B9F81400411E584601F0A7FD534DA9
:10310000E06A4FF00101A8420CBF01200220FDF748
:10311000E5F912208DF84C0002208DF84D008DF855
:103120004E608DF84F8013A8FFF758F9E06AA84267
:103130000CD119208DF84C008DF84D608DF84E6043
:103140008DF84F8013A8FFF749F90BE02C208DF87C
:103150004C008DF84D608DF84E608DF84F8013A8AF
:10316000FFF73CF9DFF8E8B001215846FDF761F8B8
:10317000DFF8E09001214846FDF75BF8607901280F
:1031800007D11A962068CDE91B061AA81D96FDF7EF
:1031900059F814A8FDF7F5F88DF8546014968DF8D9
:1031A0005560CDE9176A8DF8648014A95E465846CB
:1031B000FDF784F814A94846FDF780F80121304650
:1031C000FDF7D6F801214846FDF7D2F8A37CE17A55
:1031D00001223046FDF79CF8A37EE17C01223046B7
:1031E000FDF796F894F82230E17E01223046FDF793
:1031F0008FF8A37CE17A01224846FDF789F8A37E87
:10320000E17C01224846FDF783F894F82230E17E04
:1032100001224846FDF77CF804213046FDF706F808
:10322000012240F207413046FDF73CF8E06AA8422F
:10323000B06820F47C10F8610CBF40F4801040F4BA
:10324000F010B8611FB0BDE8F08F00000000014031
:103250000020014000210140C06D806AC16A002049
:103260000A8A12F0800F08BF704740204FF67F7225
:103270000A82704770B50D46FFF708FA18490446F0
:103280000878002803BF174801220A7000208562D1
:10329000E06515482060A87A214600F0A3FF134896
:1032A00060601348A0601348E06013482061134831
:1032B00060611348A061134820621348606213489C
:1032C000A0621348E0621348206313486063134808
:1032D000A0631348E0611348E063204670BD00001E
:1032E000E9C00120D4C90120012C0E08892C0E0848
:1032F0009D2A0E0873370E08F1370E08A5280E0810
:1033000061380E0829330E08D1330E0879340E08BF
:1033100021350E08C9350E0871360E086D2A0E08C3
:1033200065280E0859320E08F0B4C36D00F144044C
:10333000D3F828C0DCF82C108A8B22F4E0428A8370
:103340008A8B42F4E0428A839D8AB0F84820BCF818
:103350002870AE1AB6B2BE4284BF6A1E92B21AD8A4
:10336000E488141BA4B2B4EB460F84BFBCF82A4017
:10337000121B0FD83A4492B2AA420CD38C8B24F47D
:10338000E0448C838C8B44F4C0448C839C8AC2EBD5
:103390004402521E92B29CF81340E403DC609CF895
:1033A0001BC04FEACC3CC3F810C00A64C26DB0F831
:1033B0004830916AC96A4B63B0F84A308B63B0F801
:1033C0004C00C863907D002818BF0120F0BC7047F6
:1033D000F0B4C36D00F14404D3F828C0DCF82C101D
:1033E0008A8B22F4E0428A838A8B42F4E0428A8309
:1033F0009D8AB0F84A20BCF82870AE1AB6B2BE4218
:1034000084BF6A1E92B21AD8A488141BA4B2B4EB6B
:10341000460F84BFBCF82A40121B0FD83A4492B220
:10342000AA420CD38C8B24F4E0448C838C8B44F420
:10343000C0448C839C8AC2EB4402521E92B29CF818
:103440000B40E403DC609CF81BC04FEACC3CC3F8A3
:1034500010C00A64C26DB0F84830916AC96A4B6303
:10346000B0F84A308B63B0F84C00C863907D0028F8
:1034700018BF0120F0BC7047F0B4C36D00F14404E4
:10348000D3F828C0DCF82C108A8B22F4E0428A831F
:103490008A8B42F4E0428A839D8AB0F84A20BCF8C5
:1034A0002870AE1AB6B2BE4284BF6A1E92B21AD853
:1034B0002489141BA4B2B4EB460F84BFBCF82A4085
:1034C000121B0FD83A4492B2AA420CD38C8B24F42C
:1034D000E0448C838C8B44F4C0448C839C8AC2EB84
:1034E0004402521E92B29CF80B40E403DC609CF84C
:1034F0001BC04FEACC3CC3F810C00A64C26DB0F8E0
:103500004830916AC96A4B63B0F84A308B63B0F8AF
:103510004C00C863907D002818BF0120F0BC7047A4
:10352000F0B4C36D00F14404D3F828C0DCF82C10CB
:103530008A8B22F4E0428A838A8B42F4E0428A83B7
:103540009D8AB0F84C20BCF82870AE1AB6B2BE42C4
:1035500084BF6A1E92B21AD8E488141BA4B2B4EBDA
:10356000460F84BFBCF82A40121B0FD83A4492B2CF
:10357000AA420CD38C8B24F4E0448C838C8B44F4CF
:10358000C0448C839C8AC2EB4402521E92B29CF8C7
:103590000B40E403DC609CF813C04FEACC3CC3F85A
:1035A00010C00A64C26DB0F84830916AC96A4B63B2
:1035B000B0F84A308B63B0F84C00C863907D0028A7
:1035C00018BF0120F0BC7047F0B4C36D00F1440493
:1035D000D3F828C0DCF82C108A8B22F4E0428A83CE
:1035E0008A8B42F4E0428A839D8AB0F84C20BCF872
:1035F0002870AE1AB6B2BE4284BF6A1E92B21AD802
:10360000A488141BA4B2B4EB460F84BFBCF82A40B4
:10361000121B0FD83A4492B2AA420CD38C8B24F4DA
:10362000E0448C838C8B44F4C0448C839C8AC2EB32
:103630004402521E92B29CF80B40E403DC609CF8FA
:1036400013C04FEACC3CC3F810C00A64C26DB0F896
:103650004830916AC96A4B63B0F84A308B63B0F85E
:103660004C00C863907D002818BF0120F0BC704753
:10367000F0B4C36D00F14404D3F828C0DCF82C107A
:103680008A8B22F4E0428A838A8B42F4E0428A8366
:103690009D8AB0F84820BCF82870AE1AB6B2BE4277
:1036A00084BF6A1E92B21AD82489141BA4B2B4EB48
:1036B000460F84BFBCF82A40121B0FD83A4492B27E
:1036C000AA420CD38C8B24F4E0448C838C8B44F47E
:1036D000C0448C839C8AC2EB4402521E92B29CF876
:1036E0001340E403DC609CF81BC04FEACC3CC3F8F9
:1036F00010C00A64C26DB0F84830916AC96A4B6361
:10370000B0F84A308B63B0F84C00C863907D002855
:1037100018BF0120F0BC704700B5012183B00846F6
:1037200000F0DAF84FF0804000F0D3FF684601F077
:10373000CFFA0020ADF800000121ADF802000191A0
:10374000ADF8080069464FF0804001F081FA202171
:10375000480601F06BFA0121880700F09EFF4FF048
:10376000804000F0B6FF0021012000F0B5F803B062
:1037700000BD70B5C06D00220121846AE56A28464B
:1037800001F02AF9288C20F0550020F4A06028844C
:103790000121284601F07EF848B9A88910F0010FF0
:1037A00005D10121284601F075F80028F5D0002147
:1037B000284600F07BFF94F85800022811D1B4F895
:1037C00060100022E06DFDF706FEB4F86C100022D8
:1037D000A06EFDF700FEB4F878100022606FFDF7D0
:1037E000FAFD288C40F255510843288470BD000032
:1037F00070B5C06D1949846A0868E56A20F00C004C
:103800000860D1F8000120F00C00C1F8000101218E
:10381000284600F03CFF01221146284601F0DCF862
:103820000121284600F042FF94F85800022818BFF2
:1038300070BDB4F860100122E06DFDF7CCFDB4F866
:103840006C100122A06EFDF7C6FDB4F87810606F11
:10385000BDE870400122FDF7BEBD00000020014020
:1038600070B5C06D0121846AE56A284600F00FFF3B
:1038700000206863A863E8630121284601F00AF884
:103880000028F9D00121284600F010FF94F85800D4
:10389000022818BF70BDB4F860100122E06DFDF77A
:1038A0009AFDB4F86C100122A06EFDF794FDB4F8F7
:1038B0007810606FBDE870400122FDF78CBD0000FC
:1038C000044A0029116814BF084321EA000010606F
:1038D0007047000030380240044A0029116814BFC4
:1038E000084321EA000010607047000040380240A1
:1038F000044A0029116814BF084321EA000010603F
:103900007047000020380240044A0029116814BFA3
:10391000084321EA0000106070470000443802406C
:10392000044A0029116814BF084321EA000010600E
:1039300070470000243802400149C8647047000005
:1039400000004742254A30B41168254B11F00C01A4
:1039500006D0244C042908BF046002D008291ED0D8
:10396000036011680F2303EA11111F4B595CD0F853
:1039700000C02CFA01F14160D2F800C0072404EA2B
:103980009C2C13F80CC021FA0CFCC0F808C012687B
:1039900004EA52329A5CD140C16030BC704713498E
:1039A000D1F800C0CCF38055D1F800C0002D0CF048
:1039B0003F0C14BFB4FBFCF3B3FBFCF3D1F800C025
:1039C0000968CCF3881C03FB0CF3C1F30141491CCB
:1039D0004900B3FBF1F10160C3E700000838024081
:1039E0000024F40040787D0170C0012004380240BA
:1039F00090F87400704701EB410100EB8100808A70
:103A0000704701EB410100EB8100B0F916007047EF
:103A100001EB410100EB8100B0F91800704701EBA8
:103A2000410100EB81008282704701EB410100EB14
:103A30008100C282704701EB410100EB81000283EB
:103A4000704770B50446806904F10C05466800684B
:103A50003178FEF708FEA0F57F41FF3908D02880B5
:103A6000B1896B884A1E03FB0200B0FBF1F068804D
:103A7000A069E1894068C289914288BF022004D8C8
:103A8000008A88428CBF04200020A88070BD2DE9E8
:103A9000F0470446806904F10C05476800683978EE
:103AA000FEF7E1FD4FF6FF7948451CBF288068808E
:103AB0000026B889002898BFBDE8F087A06904F106
:103AC0000C05D0F80480006898F80010FEF7CBFDD4
:103AD000484509D02880B8F80C106B884A1E03FBB3
:103AE0000200B0FBF1F06880A169E0894968CA89E9
:103AF000904288BF022004D8098A81428CBF0420EA
:103B00000020A880701C86B2B889B042D6D8BDE823
:103B1000F0872DE9F0430446806983B00F4645687D
:103B20006846FDF74FFC2889009003208DF80400BB
:103B300069466868FDF7E0FBA0690760287860F3D4
:103B40000706A87A314660F30F213846FEF762FD7A
:103B5000A06904F10C05476800683978FEF783FD19
:103B60004FF6FF7948451CBF288068800026B88939
:103B700000289CBF03B0BDE8F083A06904F10C05E8
:103B8000D0F80480006898F80010FEF76CFD4845F6
:103B900009D02880B8F80C106B884A1E03FB02007D
:103BA000B0FBF1F06880A169E0894968CA89904258
:103BB00088BF022004D8098A81428CBF04200020DB
:103BC000A880701C86B2B889B042D6D803B0BDE8D0
:103BD000F083000010B50C4602F020FB084B19786A
:103BE000002903BF074A01211970002254600649C9
:103BF00082610160054941600549816010BD000096
:103C0000D0C00120D4C00120133B0E088F3A0E080B
:103C1000433A0E082DE9F041264E0446012A08BF1A
:103C2000254E94F81E120320012904D002290DD03C
:103C3000032913D03BE0022A39D194F81D11002941
:103C40001CBF022084F81E0231D104E094F81D113B
:103C5000891C91422BD184F81E0228E094F81D01A2
:103C6000C01C904223D10027144E84F81E723A469D
:103C700040F22551124802F00EFA0520A4F8240261
:103C800014F58E7510D02846FCF7C4FB6B78A91C80
:103C9000595C884208D1A4F8247294F81C11AA1C1B
:103CA000A068FDF753FE02E0A068FEF741F8304639
:103CB000BDE8F08198670E089A670E089C670E08A9
:103CC00000100140C26810472DE9F0410546406AE6
:103CD0002A6988468679012728469047002804BF2C
:103CE0003446002725D0B8F90010002095F822406E
:103CF0000029BABF494289B2B8F800106A6A5388ED
:103D00008B4238BF012093888B4288BF0120B5F9D0
:103D100020100029BABF494289B2298C12898A42EF
:103D20000CD301280AD0B44238BF0024B44208BFE3
:103D3000002785F822403846BDE8F081B4423CBFF8
:103D4000601CC4B2F2E7002180F8221081680847A5
:103D5000B0F91C007047B0F918007047B0F91C109A
:103D6000406AC1EBC131B0F9020091FBF0F000B242
:103D70007047416808470000094B0246197803293B
:103D800028BF002009D201EB410000EBC100DFF8A1
:103D900014C0491C0CEB800019704262704700008F
:103DA000DCC00120F0C801204269104770B504460C
:103DB000007800280CBFA5686568A089012804D98F
:103DC000A169A0F101000D4405E005D160884FEA2A
:103DD00000454FF00000A0812078012805D0E817A9
:103DE00005EB10400014A56070BDE81705EB10400E
:103DF00006146069FFF7ACFF301A01B22069FEF7C4
:103E00003BFB0104C4E9015170BD0178012918BFD1
:103E1000704700690021FEF7A1BB2DE9F0410D4676
:103E20000178C66990460446012761B16069FFF7D1
:103E30008FFF010461607188A942A4BFB6F9081020
:103E40008D4214DA11E0A068C11700EB11407189AE
:103E50000014A94205DAB6F90C1000278D4220DAC9
:103E600003E0B6F90C108D4208DA002719E0B1889A
:103E70008D42BCBFB6F90610A942F6DBB8F1000FBF
:103E800012D0658031884FF47A7201FB08F1B1FBE2
:103E9000F2F1491C89B2281A000490FBF1F0A181CB
:103EA000A0613846BDE8F08121782804012914BFBB
:103EB000A06060600020A081F2E7C269508A60F3D0
:103EC0000F010846918A61F31F407047C06940881E
:103ED00070474068C11700EB114000147047C0697B
:103EE000B0F910007047C069B0F908007047406928
:103EF0007047C369C0E90412997B0170198A0904EB
:103F00004160598A09048160002141808181816179
:103F100070470000054902460878002803BF04489E
:103F200001230B700020C26170470000DDC001203A
:103F300074C901200170002181817047416170477F
:103F4000027800210B2A04D109210170002181800F
:103F5000012108467047B0F802C003784CEA010C12
:103F6000A0F802C0B0F804C04CEA01018180418889
:103F7000914341800A2B05D011B10A2101700B46F3
:103F8000184670470029FBD10B2101700B46F7E75B
:103F90008188408841EA00407047007870470021DE
:103FA0000170418081807047064A1178022924BF40
:103FB0000020704701EB4100491C1170024B03EBDC
:103FC00040007047DEC0012094C901200246002055
:103FD00092F800C0BCF1130F6AD2DFE80CF00D2795
:103FE0003C3F575C6164676E69690A2D3237484D02
:103FF0005200002965D05BE003291CBF01290C2970
:104000005FD0072908BF70475188BCF10A0F41F003
:1040100080015180918841F080019180518852D077
:10402000002914BF0A2170471170704707291CBF6F
:104030000D290E2945D03BE00E2918BF072940D095
:1040400036E00F2918BF07293BD031E0022918BFFD
:10405000072936D02CE0072933D029E0072918BFDB
:1040600010292ED0112918BF01292AD020E01129AA
:1040700018BF072925D01BE0122918BF072920D017
:1040800016E0042918BF07291BD011E0052918BF25
:10409000072916D00CE0062918BF072911D007E020
:1040A00007290ED004E008290BD001E0092908D027
:1040B000032914BF01297047A3E7002918BF0C2961
:1040C000F6D10120B0E700290CBF0B217047ABE708
:1040D000826A908C60F30F010846D18C61F31F4017
:1040E0007047806AD0F838017047816AD1F84C0176
:1040F000D1F814C08969837F4CFA03F060F30F0292
:104100001046194161F31F407047806AD0F83401AE
:104110007047806A43880B80C08810807047806A2F
:104120004180C2807047826A108D60F30F0108469B
:10413000518D61F31F407047806AD0F8B800704716
:10414000816AD1F8C800D1F818C0C96990F8363032
:104150004CFA03F060F30F021046194161F31F405F
:104160007047806AD0F8B4007047806A43880B803B
:10417000C0881080704770B5846A15460E46606925
:10418000FEF7C0F930806069FEF7B6F9288070BD8F
:10419000806A4180C280704770B5846A1546606944
:1041A000FEF7E0F929466069BDE87040FEF7D8B92E
:1041B0007047437CD91C914204BF002180F8121142
:1041C000017CD0F808C000F112026046FDF7D4BDB2
:1041D000034603480A461946006801F051BB000037
:1041E000BCC00120014A42F8201070477CC6012063
:1041F000014A42F82010704784C0012070B50B4C72
:104200000120A0600A482060256800F061F885421E
:104210001CBF206880470021064801604160064AB3
:104220008260C1600161416170BD000000300240E8
:10423000FD410E08F8C00120B50F0E0870B50B4CFB
:104240000120A0600A482060256800F041F88542FE
:104250001CBF206880470021064801604160064A73
:104260008260C1600161416170BD000000300240A8
:10427000FD410E08F8C00120F50F0E08044800218A
:104280000160044A42608160C16001614161704720
:10429000F8C00120FD410E08044800210160044AD5
:1042A00042608160C160016141617047F8C00120D6
:1042B0003D420E08054804490160002141608160CB
:1042C000C16001614161704775100E08F8C001209E
:1042D0002DE9F007DFF818C2A1B000211023ADEBE3
:1042E0002C624C1E24FA01F505F0010555604D1CA9
:1042F00024FA05F505F00105891C42F8085F5B1EEC
:10430000F0D1DFF8F0811F991E9AC90701EB827185
:104310001D9A01EB42711C9A01EB02711B9A01EB91
:10432000C2611A9A01EB8261199A01EB4261189AF3
:1043300001EB0261179A01EBC251169A01EB82510F
:10434000159A01EB4251149A01EB0251139A01EBB9
:10435000C241129A01EB8241119A01EB4241109A3B
:1043600001EB02410F9A01EBC2310E9A01EB82314F
:104370000D9A01EB42310C9A01EB02310B9A01EBE1
:10438000C2210A9A01EB8221099A01EB4221089A83
:1043900001EB0221079A01EBC211069A01EB82118F
:1043A000059A01EB4211049A01EB0211039A01EB09
:1043B000C201029A01EB8201019A01EB4201009ACB
:1043C0008D18C3F11F0120FA01F11F9A01F00101BC
:1043D00081EA020408EA04026A4002F00106CDE91B
:1043E000004601AA01210F264F1C2CFA07F909EA01
:1043F000040925FA01FA89EA0A0909F00109C2F853
:10440000049001F102092CFA09F925FA07F709EAE3
:10441000040989EA070707F00107891C42F8087FA9
:10442000761EE1D15B1C202BFFF46DAF1F981E9907
:10443000C00700EB81701D9900EB41701C9900EBE7
:1044400001701B9900EBC1601A9900EB816019990A
:1044500000EB4160189900EB0160179900EBC15027
:10446000169900EB8150159900EB4150149900EB1F
:104470000150139900EBC140129900EB8140119952
:1044800000EB4140109900EB01400F9900EBC13067
:104490000E9900EB81300D9900EB41300C9900EB47
:1044A00001300B9900EBC1200A9900EB812009999A
:1044B00000EB4120089900EB0120079900EBC110A7
:1044C000069900EB8110059900EB4110049900EB6F
:1044D0000110039900EBC100029900EB81000199E2
:1044E00000EB4100009921B00844BDE8F007704797
:1044F000B71DC104DB8E600210B500F087F8BDE87F
:104500001040FCF77BBF0000374882B0016841F4DF
:10451000700101603548016841F0010101603449D2
:1045200000230B60026822F4102222F080720260E5
:1045300000F1040C2F4ACCF80020026822F48022FB
:1045400002600A1D136001930093026842F48032F6
:104550000260026802F400320092019A521C019239
:10456000009A1AB9019AB2F5A04FF2D1026812F47A
:10457000003F08BF009331D0012200921E4A136809
:1045800043F0805313601D4A136843F440431360A3
:104590000A680A600A6842F400420A600A6842F443
:1045A000A0520A60164ACCF80020026842F08072DD
:1045B0000260026812F0007FFBD0124A40F20570E0
:1045C0001060086820F003000860086840F00200EE
:1045D0000860086800F00C000828FAD10A494FF07A
:1045E0000060086002B0704788ED00E000380240CB
:1045F000083802401030002440380240007000406B
:1046000019544007003C024008ED00E010B500F0EE
:10461000D7FBFDF7FDFB01F0F9F80748418811B120
:104620004188491E41800188002908BF10BD0188CA
:10463000491E018010BD0000C4C0012003494FF68F
:10464000FE70088200210846FCF7C6BB000001404E
:1046500000210220FCF7C0BB0A884B88B1F806C0D5
:104660001A438B8843EA0C031A430B891A434B897C
:1046700089891A431143A0F8441070470021018032
:1046800041808180C1800181418181817047C9431E
:1046900001827047C943018270470029018814BF15
:1046A00041F0010121F00101018070470029B0F8BB
:1046B000441014BF41F40041C1F30E01A0F84410AE
:1046C0007047002A828914BF114322EA01018181C7
:1046D000704710B5A0F18041B1F5803132D0B0F112
:1046E000804F43D011F57C4136D0B1F5806147D081
:1046F000B1F580614ED0B1F5806155D0B1F58061E2
:104700005CD0B1F5704163D0B1F570516AD0B1F5AC
:10471000806172D0B1F580617AD011F598317DD089
:10472000B1F580617BD0B1F5806118BF10BD01216A
:104730000802FFF7DDF8BDE8104000214FF480705B
:10474000FFF7D6B801210846FFF7EAF80021BDE8D7
:1047500010400120FFF7E4B801210220FFF7C8F85C
:104760000021BDE810400220FFF7C2B80121084631
:10477000FFF7BEF80021BDE810400120FFF7B8B8F0
:1047800001210420FFF7B4F80021BDE81040042007
:10479000FFF7AEB801210820FFF7AAF80021BDE815
:1047A00010400820FFF7A4B801211020FFF7A0F85F
:1047B0000021BDE810401020FFF79AB80121202009
:1047C000FFF796F80021BDE810402020FFF790B8D1
:1047D00001210220FFF7A4F80021BDE810400220CB
:1047E000FFF79EB801210804FFF79AF8BDE81040D2
:1047F00000214FF48030FFF793B801214804FFF700
:104800008FF8BDE8104000214FF40030FFF788B862
:1048100001218804FFF784F8002101E006E00FE0A1
:10482000BDE810404FF48020FFF77AB80121402006
:10483000FFF75EF80021BDE810404020FFF758B8B0
:1048400001218020FFF754F80021BDE810408020AE
:10485000FFF74EB830B40589B0F818C0048C25F0C5
:10486000070529432CF0030C2CF4407C40F2011581
:104870004CEA050C4FF6FF7505EA031324F02204F9
:104880001A4322430181A0F818C0028430BC70474B
:104890008182704702460020128A0A4218BF012016
:1048A000704770B40D884C88B1F804C00B894FF67E
:1048B000FF7255B3042D44D0082D058C67D025F424
:1048C00080550584868B058C26F4734602EA0C2CF1
:1048D0004CEA060C02EA033343EA0C0302EA04340E
:1048E00025F4204C4CEA040C4CF4805C8383A0F843
:1048F00020C08979838B23F440638383838B02EA0E
:1049000001211943818370BC7047058C25F0010596
:104910000584068B058C02EA031226F0F30642EAB0
:104920000C02324325F00A03234343F001030283C0
:104930000384C988028B22F00C020283028B11438C
:1049400022E0058C25F010050584068B058C26F4E5
:10495000734602EA0333334302EA0C2C4CEA0303A6
:1049600002EA041425F0A00C4CEA040C4CF0100CE4
:104970000383A0F820C08979038B23F44063038369
:10498000038B02EA01211943018370BC704725F4AF
:1049900080750584868B058C02EA042402EA0312E2
:1049A00026F0F30642EA0C02324325F42063234347
:1049B00043F4807382830384C988828B22F00C02C3
:1049C0008283828B11439DE7002101804180012277
:1049D0008280C18001817047002A828914BF1143FF
:1049E00022EA01018181704710B4028C22F0010299
:1049F0000284038C8288B0F818C00C882CF0730CE9
:104A000044EA0C0C8C8923F0020323434C88234393
:104A1000A0F18044B4F580341CBFA0F18044B4F50B
:104A200082340DD1CC8923F0080323438C8823F0F2
:104A3000040323430C8A22F4407222434C8A22430B
:104A40008280A0F818C089684163038410BC704755
:104A5000028B22F0080211430183704730B4028CAC
:104A600022F010020284038CB0F804C0028B0D887F
:104A700022F4E6444FF6FF7202EA05252C438D89A5
:104A800023F0200302EA05152B434D8802EA0515A1
:104A90002B43A0F18045B5F580351CBFA0F18045C2
:104AA000B5F5823517D1CD8923F0800302EA0515CB
:104AB0002B438D8823F0400302EA05152B430D8A12
:104AC0002CF4406C02EA850545EA0C0C4D8A02EA9A
:104AD000850242EA0C0CA0F804C004838968816353
:104AE000038430BC7047028B4FF6FF7322F40062E0
:104AF00003EA012111430183704730B4028C22F490
:104B000080720284028C8388B0F81CC00C882CF060
:104B1000730C44EA0C0422F4007C8D894FF6FF727A
:104B200002EA052545EA0C0C4D8802EA052545EA0E
:104B30000C0CA0F18045B5F580351CBFA0F1804577
:104B4000B5F5823517D1CD892CF4006C02EA052524
:104B500045EA0C0C8D882CF4806C02EA052545EAA8
:104B60000C0C0D8A23F4405302EA05152B434D8AA1
:104B700002EA05121343838084838968C163A0F825
:104B800020C030BC7047828B22F008021143818321
:104B9000704730B4028C22F480520284048C8288E4
:104BA000838B0D8823F4E64C4FF6FF7303EA05254B
:104BB00045EA0C0C8D8924F4005403EA05352C4396
:104BC0004D8803EA05352C43A0F18045B5F58035C5
:104BD0001CBFA0F18045B5F5823505D10D8A22F4C0
:104BE000804203EA85131A438280A0F81CC08968BA
:104BF0000164048430BC7047828B4FF6FF7322F44B
:104C0000006203EA01211143818370470021018082
:104C10004180818081608181C181018241827047B0
:104C2000028922F07002114301817047828822F0CC
:104C3000700282808288114381807047028922F04D
:104C40000702028102891143018170474162704766
:104C500010B402881C4BDFF874C0984218BF60453E
:104C600011D0B0F1804F1CBFA0F18044B4F5806436
:104C700009D0A0F18044B4F500641CBFA0F18044C9
:104C8000B4F5406403D14C8822F070022243A0F1B5
:104C90008044B4F580541CBFA0F18044B4F5A05406
:104CA00003D00C8922F44072224302804A68C26217
:104CB0000A880285984212BF6045897A01860121DF
:104CC000818210BC704700000000014000040140D8
:104CD0004FF0FF31416000210180018141808172EC
:104CE000704700002DE9F84F2F484FF0000A514659
:104CF0000068FEF7E7FF2D480068FFF7F8F8FFF7B8
:104D00002AF8DFF8AC9006466946D9F80000FDF7AE
:104D1000ACFC0098FCF712FD80463146FCF734FDF0
:104D2000244C054629B2B4F91000411AA9F110002B
:104D30000068FDF7A1FB60F30F07B4F91200A0EBC8
:104D40002541A9F10C000068FDF796FB394660F398
:104D50001F4109F1100061610068FBF789FB834680
:104D60003146FCF751FD07463946D9F80000FDF7FA
:104D7000A1FC814600982060C4F80480E5600E48DC
:104D8000A761E683006800281CBF5946FCF7EEF9CE
:104D9000B9F1010F05D10948002201210068FFF790
:104DA000DAF85046BDE8F88F38C001201CC0012059
:104DB00034C0012050C1012050C0012018C0012082
:104DC00070B51D480024006800F03EF81B4D0646F3
:104DD0002868FDF721FC0643A5F10800006801F0F2
:104DE00012FA40EA0601C843A5F11C0682B23068F7
:104DF000FFF7B1F83068FFF7D0F80A2805D00B2884
:104E000004BF2868FDF71DFD09E02868FDF719FDBE
:104E10002046FCF793F80A480068FDF7A3FA094C0E
:104E20006078012818BF70BD21782868FDF71BFC49
:104E300020810220607070BD30C0012034C001208C
:104E400040C0012004C0012081680847C1680847AC
:104E500002681047054902460878002803BF044845
:104E600001230B700020426170470000DFC0012069
:104E7000A0C9012070B5026B90F83C0001240A29FA
:104E800052F820502CD2DFE801F02B1B17052C2CF8
:104E9000131F23272846FCF7F7FB062821D12846B5
:104EA000FCF7D1FB014600222846FCF7B9FB18E0CD
:104EB0002846FCF7E9FB18B12846FCF73BFC10E05C
:104EC0002846FCF72CFC0CE02846FCF7B9FB08E070
:104ED0002846FCF766FB04E02846FCF759FB00E097
:104EE0000024204670BD000010B5036B90F83C0014
:104EF00053F82000044B83FB0131A1EBE17109B2AF
:104F0000FCF78EFB012010BDABAAAA2A10B5036BDB
:104F100090F83C0053F82000FCF789FB012010BDFD
:104F2000034666201A69002A08BF704718461047D2
:104F300070B502462C300B46017CD0F808C084B016
:104F40004FF0FF345CF82150D0F804C05F2B5CF8C0
:104F5000216080F00384DFE803F030333A41FD46FE
:104F60004B4FFC53585FFB666A6E75AE93FAF9F8C7
:104F7000F7F6F5F4F3F2F1F0EFEEEDECEBEAE9E839
:104F8000E7EEEDFCFBE6E5E4E3E2E1E0DFDEDDDCBD
:104F9000DBDAD9D8D7D6D5D4D3D2D1FBD0CFCECDAA
:104FA000CCCBCAC9C8C7C6C5C5C5C5C5C5C5C5C595
:104FB000C5C5C5C5C5C4C5C3C2000C4600F0CEBB3F
:104FC0002846FCF702FFFEF7E3FF00F03BB9284656
:104FD000FCF7FBFEFEF7E1FF00F034B93046FCF7CA
:104FE0003AFB00F02FB92846FCF7E7FE00F009B9BC
:104FF0002846FCF7E2FE0BE02846FCF7DEFE0EE05A
:105000002846FCF7D4FE00F0FCB82846FCF7CFFE9B
:10501000FDF772FA00F016B92846FCF7C8FEFDF756
:105020001FFA00F00FB92846FCF7BFFEE9E028465A
:10503000FCF7BBFEECE72846FCF7B7FEFDF710FADD
:1050400000F000B9C06850F8214000200921B1EB00
:10505000147F04BF2846FCF7B4FEC4F3036109299A
:1050600004BF2846FCF7ABFE00281CBF01AA694616
:1050700002D000BFFFF779F8BDF9004000F06EBB29
:10508000C06850F8214000200A21B1EB147F04BF12
:105090002846FCF796FEC4F303610A2904BF28469C
:1050A000FCF78DFE00281CBF01AA6946E4D000BFB2
:1050B000FFF72FF8E0E7C06850F8214000200921F1
:1050C000B1EB147F04BF2846FCF77BFEC4F30361F9
:1050D000092904BF2846FCF772FE00283BE073E173
:1050E00063E130E38BE227E31FE317E30FE305E31C
:1050F000FBE2F1E2D8E2C1E2AAE293E289E27FE2D6
:1051000076E26FE257E228E2F9E1C7E197E16AE16E
:105110003AE20BE2DBE1A8E17BE12EE111E1F7E00D
:10512000F1E0EBE0E5E0DFE0CFE0C9E0C3E0BDE0C7
:10513000B4E0AAE0A4E09EE095E08EE085E07CE0AB
:1051400075E06EE064E05FE058E022E03DE007E0FB
:10515000C5E0BFE0FCE21CBF6A4601A98CD089E72C
:10516000C06850F8214000200A21B1EB147F04BF31
:105170002846FCF726FEC4F303610A2904BF28462B
:10518000FCF71DFE00281CBF6A4601A93FF474AF5E
:105190008EE7C06850F8214000200921B1EB147F50
:1051A00004BF2846FCF70DFEC4F30361092904BFC0
:1051B0002846FCF704FE00281CBF01AA69463FF4FC
:1051C0005BAF00BFFEF7D7FF56E7C06850F821403D
:1051D00000200921B1EB147F04BF2846FCF7F1FD44
:1051E000C4F30361092904BF2846FCF7E8FD002841
:1051F0001CBF6A4601A93FF43FAFE3E72846FCF72E
:10520000D2FDFDF77FF91DE02846FCF7CCFDFFE657
:105210002846FCF7C6FD002800F0A082FBF7CCFF73
:1052200010E02846FCF7B9FD00F0EFFF0AE0284641
:10523000FCF7CDFDFFF70AFE04E02846FCF7B9FDB8
:10524000FDF7A3F8044600F089BA1369002166202F
:10525000002BF7D010469847F4E713690121662028
:10526000002BF7D1EEE73046FCF7EDF900EB4000FC
:10527000440000F073BA3046FCF7F5F900F04CBA80
:105280003046FCF7F0F900F04EBA2846FCF789FDED
:10529000002800F06382FBF784FFD3E72846FCF781
:1052A0008AFDFEF7A5FB044600F058BA3046FCF72D
:1052B000D4F900F031BA3046FCF7CFF900F033BA38
:1052C0003046FCF7CDF900F027BA3046FCF7C8F9B4
:1052D00000F029BA3046FCF7C9F900F01DBA304693
:1052E000FCF7C4F900F01FBA3046FCF7D7F900F01C
:1052F00013BA3046FCF7D2F900F015BA3046FCF785
:10530000CAF900F009BA3046FCF7C5F900F00BBA4B
:10531000C06850F8216000200221B1EB167F19BF50
:105320000121B1EB167F2846FCF74BFDC6F3036164
:10533000022912BF01292846FCF741FD90BB00F06D
:105340000DBAC06850F8216000200221B1EB167F31
:1053500019BF0121B1EB167F2846FCF732FDC6F3D9
:105360000361022912BF01292846FCF728FD002805
:1053700000F0F481FEF7F2FC64E7C06850F82160A9
:1053800000200921B1EB167F04BF2846FCF719FD68
:10539000C6F30361092904BF2846FCF710FD002865
:1053A00000F0DC81FEF7D7FC4CE7C06850F8210024
:1053B0000B21B1EB107F40F0D1812846FCF701FDB5
:1053C0000028EFD100F0CAB9C06850F821000B21C5
:1053D000B1EB107F40F0C2812846FCF7F2FC0028B8
:1053E000C8D100F0BBB9C06850F8216000200A2184
:1053F000B1EB167F04BF2846FCF7E3FCC6F303615C
:105400000A2904BF2846FCF7DAFC0028CAD100F0BC
:10541000A5B9C06850F8216000200921B1EB167FC2
:1054200004BF2846FCF7CDFCC6F30361092904BF7D
:105430002846FCF7C4FC00289CD100F08FB9C06856
:1054400050F8216000200A21B1EB167F04BF2846E6
:10545000FCF7B7FCC6F303610A2904BF2846FCF732
:10546000AEFC002886D100F079B9C06850F8216000
:1054700000200921B1EB167F04BF2846FCF7A1FCF0
:10548000C6F30361092904BF2846FCF798FC0028ED
:1054900000F06481FEF754FE00F03EB9C06850F899
:1054A000216000200A21B1EB167F04BF2846FCF7DB
:1054B00088FCC6F303610A2904BF2846FCF77FFC79
:1054C000002800F04B81FEF710FE00F025B9C068FF
:1054D00050F8216000200921B1EB167F04BF284657
:1054E000FCF76FFCC6F30361092904BF2846FCF7EB
:1054F00066FC002800F03281FEF722FE13E1C0684E
:1055000050F8216000200A21B1EB167F04BF284625
:10551000FCF757FCC6F303610A2904BF2846FCF7D1
:105520004EFC00286BD0FEF7E0FDFCE0C06850F8B0
:10553000216000200921B1EB167F04BF2846FCF74B
:1055400040FCC6F30361092904BF2846FCF737FC79
:10555000002854D0FEF7E7FDDEE0C06850F8216077
:1055600000200A21B1EB167F04BF2846FCF729FC76
:10557000C6F303610A2904BF2846FCF720FC002873
:105580003DD0FEF7A5FDC7E0C06850F821600020BF
:105590000921B1EB167F04BF2846FCF712FCC6F3C5
:1055A0000361092904BF2846FCF709FC002826D01E
:1055B000FEF7B9FDB7E0C06850F8216000200A216D
:1055C000B1EB167F04BF2846FCF7FBFBC6F3036173
:1055D0000A2904BF2846FCF7F2FB00280FD0FEF78B
:1055E00077FDA0E093694BB100211046984729E66A
:1055F00093691BB101211046984723E60024ADE0D2
:105600002846FCF7E0FBFEF761FC00EB400044009D
:10561000A4E02846FCF7D7FBFEF765FC00EB400052
:1056200044009BE0C06850F8216000200921B1EBE4
:10563000167F04BF2846FCF7C4FBC6F303610929A3
:1056400004BF2846FCF7BBFBE8B3FEF775FD6AE034
:10565000C06850F8216000200921B1EB167F04BF1B
:105660002846FCF7AEFBC6F30361092904BF2846B0
:10567000FCF7A5FB38B3FEF774FD54E0C06850F8A2
:10568000216000200A21B1EB167F04BF2846FCF7F9
:1056900098FBC6F303610A2904BF2846FCF78FFB79
:1056A00088B1FEF71EFD3EE0C06850F82160002082
:1056B0000A21B1EB167F04BF2846FCF782FBC6F334
:1056C00003610A2900E028E004BF2846FCF777FBC5
:1056D00018B3FEF71AFD26E02846FCF760FB0146EA
:1056E0006846FBF71BFC019C38E02846FCF757FB9B
:1056F00001466846FBF712FC009C2FE02846FCF7A9
:105700004EFB01466846FBF709FC029C26E0284652
:10571000FCF745FBFBF70BFC04B21FE02846FCF747
:105720003EFBFBF704FC041418E02846FCF737FBAB
:10573000FBF7FBFB04B211E02846FCF730FBFBF75C
:10574000F4FB04140AE03046FBF785FF012808D07B
:105750003046FBF796FF00EB4000440004B02046C3
:1057600070BD3046FBF785FF00EB40004400F5E7D5
:105770002DE9F0478946416B90F83C001E461746DC
:105780000124DDF8208051F82000FCF714FB05000F
:1057900008BF00240ED04946FEF72DF9388049464F
:1057A0002846FEF72EF9308049462846FEF730F9A4
:1057B000A8F800002046BDE8F087DDF800C000F83A
:1057C0002C1F0021C0E901230174C0F80CC07047F0
:1057D000016B90F83C0051F82000FBF76CBF000013
:1057E000084B02461978032928BF002007D201EB95
:1057F000C100DFF814C0491C0CEBC0001970026432
:105800007047000088C0012074C501200648418807
:1058100011B14188491E41808188012998BF704794
:105820008188491E8180704794C00120044900206E
:105830008A88012A18BF704700208880012070479D
:1058400094C0012001494F208880704794C00120F6
:10585000014900208880704794C00120D0F830C0F2
:1058600090F83C0061F30F0319465CF8200062F3E6
:105870001F41FBF747BFC368002B08BF704718479D
:105880002DE9F04103462C3015460A46017CD0F83C
:1058900008C0012684B05CF82180D0F804C02CB286
:1058A000102A5CF821704FF0090C77D00ADC36D250
:1058B000DFE802F02C3535383551596169757D8541
:1058C0008D98A0A8172A00F077810ADCA2F11103B5
:1058D0004FF00A02062B22D2DFE803F0DFBEFDFC08
:1058E000FBFA472A00F08A8109DC182A00F06B8154
:1058F000412A00F07181462A00F073810FE0482AA6
:1059000000F08B815B2A00F0978108E013F82C1FD0
:10591000E8B20126814288BF187400F29781002600
:1059200000F094B915F0FF0F07D13846FBF7AFFE32
:10593000014600223846FBF77AFEE8B2012840F023
:1059400085813846FBF79DFE014600223846FBF76D
:1059500067FE00F07BB94046FCF72FFA2146FCF7C2
:1059600001FE00F073B94046FCF727FA2146FCF728
:10597000F7FD00F06BB94046FCF71FFA2146FCF733
:1059800075FD00F063B93846FBF770FE64F30F0055
:1059900001463846FBF7B6FE00F058B93AE04046FB
:1059A000FCF705FA2146FCF7DDFD00F04FB9404653
:1059B000FCF7FDF92146FCF7D3FD00F047B940465E
:1059C000FCF7F5F92146FCF751FD00F03FB93846E8
:1059D000FBF74CFE64F31F4001463846FBF792FE8E
:1059E00000F034B94046FCF7E0F92146FCF7BAFD77
:1059F00000F02CB94046FCF7D8F92146FCF7B0FD81
:105A000000F024B94046FCF7D0F92146FCF72EFD02
:105A100000F01CB9C068002550F82170BCEB177F5E
:105A200003D14046FCF7CDF90546C7F303600928CA
:105A300003D14046FCF7C3F90546002D00F006816E
:105A40006A4601A92846FEF790FBBDF900202146D1
:105A50002846FEF79DFBF9E0C068002550F821704C
:105A6000B2EB177F03D14046FCF7ABF90546C7F30D
:105A700003600A2803D14046FCF7A1F90546002D32
:105A800051D06A4601A92846FEF743FBBDF9002024
:105A900021462846FEF743FBD8E0C068002550F8B1
:105AA0002170BCEB177F03D14046FCF78AF905460D
:105AB000C7F30360092803D14046FCF780F9054687
:105AC000002D30D001AA69462846FEF74EFB03E0C0
:105AD0006BE04AE028E006E02246BDF900102846C7
