:020000040801F1
:10000000400E01209D010108CB200108B311010819
:10001000C920010897030108BD5B0108000000002A
:10002000000000000000000000000000913E0108F8
:10003000950701080000000041250108C93E01089C
:10004000B7010108B7010108B7010108B7010108AC
:10005000B7010108B7010108B7010108B70101089C
:10006000B7010108B7010108B7010108B70101088C
:10007000B7010108B7010108B7010108B70101087C
:10008000B7010108B701010879020108B7010108A9
:10009000B7010108B7010108B7010108B70101085C
:1000A000B70101080D400108B7010108B7010108B7
:1000B000B7010108B7010108B7010108B70101083C
:1000C000B7010108B7010108B7010108B70101082C
:1000D000B7010108B9560108B7010108B7010108C5
:1000E000B7010108B7010108B7010108B70101080C
:1000F000B7010108B7010108B7010108B7010108FC
:10010000B7010108B701010821400108B701010842
:10011000B7010108B7010108B7010108B7010108DB
:10012000B7010108B7010108B7010108B7010108CB
:10013000F5040108B7010108B7010108B70101087A
:10014000B7010108B7010108B7010108B7010108AB
:10015000B7010108B7010108B7010108B70101089B
:10016000B7010108B7010108B7010108B70101088B
:10017000B7010108B7010108B7010108B70101087B
:10018000B7010108B7010108DFF80CD000F03CF816
:10019000004800470F5F0108400E012006488047D5
:1001A00006480047FEE7FEE7FEE7FEE7FEE7FEE75C
:1001B000FEE7FEE7FEE7FEE7D93E01080F5F010814
:1001C00040EA01039B0703D009E008C9121F08C0D9
:1001D000042AFAD203E011F8013B00F8013B521E59
:1001E000F9D27047D2B201E000F8012B491EFBD2D0
:1001F00070470022F6E710B513460A460446194632
:10020000FFF7F0FF204610BD064C074D06E0E06802
:1002100040F0010394E8070098471034AC42F6D34D
:10022000FFF7B6FF98630108B8630108C94301608E
:1002300070470029816814BF41F0010121F00101DC
:10024000816070470849D1F80423084B1A40D0E96F
:10025000003C43EA0C03D0E902C04CEA000018431A
:100260001043C1F80403704700200140E030FCFF58
:10027000C06C80B2704700000948016811F0040F9B
:1002800005D0016821F00C01016004F013BAD0F828
:10029000001221F00C01C0F8001204F00BBA0000AB
:1002A00000200140012303FA01F1002A426814BF33
:1002B000114322EA010141607047000010B4426816
:1002C00091F804C022F4807222F040720B6842EA76
:1002D0000C221A43426082680C4B4C791A40D1E9D7
:1002E00003C343EA0C03D1F808C04CEA440C43EAC8
:1002F0000C031A438260C26A097D22F47002491E0F
:10030000C9B242EA0151C16210BC7047FDF7FFC09B
:1003100030B4072409290DD9C568A1F10A0C0CEBEA
:100320004C0C04FA0CF425EA040403FA0CF32343FE
:10033000C3600AE0056901EB410C04FA0CF425EAFC
:10034000040403FA0CF323430361836BC3F3015CDE
:10035000A2EB0C02921C02EB82024FF01F0C0CFA73
:1003600002FC23EA0C0391401943816330BC7047BF
:100370000029416814BF41F4805121F4805141604B
:10038000704700210160017141718160C1600161AC
:10039000012101757047FEE70549024608780028EB
:1003A00003BF044801230B70002002607047000067
:1003B000E4000120E80001200449087800281CBF5F
:1003C00000207047024801220A7070477A0001201D
:1003D0002C050120002914BF002A70470161828288
:1003E0000021C18241680847002101618182C182E8
:1003F0007047002181618183C1837047002914BF48
:10040000002A7047816182830021C1838168084787
:100410000162704770B4002138B346780178731ECA
:100420003144002B18DD421C16F0010F02D112F8E6
:1004300001CF614454784FF0000C5B100AD000BF2C
:1004400012F8025F21445478AC4489B21FFA8CFC44
:100450005B1EF5D1614489B2721E03D410448078CA
:10046000084481B201EB1120C1B270BC084670474C
:1004700010B40246084612680FFA81FC1CFB0CF40B
:100480000B1413FB0341148864438C4224BF10BC3B
:10049000704792F8B040C4EB1161C9B202EB410160
:1004A0004A8810BC0CFB02F14FEAE17C01EB5C4195
:1004B00041F3CF3161F30F0003FB02F1CA1701EBE7
:1004C000524141F3CF3161F31F407047C1B202483E
:1004D000006804F0ABB90000B4000120044A002910
:1004E000516814BF084321EA0000506070470000C3
:1004F000002004E070B5094C094D2146284600F063
:10050000F3F8012818BF70BD2146284600F00AF80C
:10051000BDE870400221002000F05EBC20000020F9
:1005200070640240064A904234BF0648064811F003
:10053000005F064A01EA020114BFC1608160704792
:100540001064024000600240006402407D0F7D0F95
:100550000029016814BF41F0010121F0010101608F
:10056000704700002DE9F003016821F001010160EE
:100570000021016041608160C16001612121416110
:10058000434A3D244349904202BF8C60BDE8F003DA
:100590007047414A4FF47465904202BF8D60BDE8D8
:1005A000F00370473D4A4FF47418904202BFC1F8FF
:1005B0000880BDE8F0037047394A4FF074669042F6
:1005C00002BF8E60BDE8F0037047364B364A984252
:1005D00002BFCA60BDE8F0037047DFF8D0C0344BFB
:1005E000604502BFCB60BDE8F0037047314FDFF8D4
:1005F000C8C0B84202BFC1F80CC0BDE8F0037047E4
:10060000DFF8B8904FF03D57484502BFCF60BDE8D6
:10061000F0037047DFF8A8902A49484502BF0C60F4
:10062000BDE8F0037047284CA04202BF0D60BDE852
:10063000F0037047254CA04202BFC1F80080BDE81E
:10064000F0037047224CA04202BF0E60BDE8F003E9
:100650007047204C2049A04202BF0A60BDE8F00369
:1006600070471E4A904202BF0B60BDE8F00370471E
:100670001B4A904202BFC1F800C0BDE8F0037047BA
:10068000184A904208BF0F60BDE8F00370470000B1
:10069000106002400060024028600240406002405A
:1006A00058600240706002403D00002088600240B7
:1006B000400F0020A060024000003D20B8600240D2
:1006C0001064024008640240286402404064024012
:1006D00058640240706402400C6402408864024026
:1006E000A0640240B86402400246084B00209A42CF
:1006F00034BF074A074A11F0005F14BF52681268FE
:10070000054B1A400A4218BF01207047106402408E
:1007100000600240006402407D0F7D0F10B402684B
:100720001B4BD1F80CC01A400B6843EA0C03D1E90B
:1007300005C44CEA040C43EA0C03D1F81CC043EA9C
:100740000C03D1F820C043EA0C03D1F824C043EADB
:100750000C03D1F828C043EA0C03D1F834C043EAB3
:100760000C03D1F838C043EA0C031A430260426913
:10077000D1E90B3C22F0070243EA0C031A43426121
:100780000A6942604A6882608968C16010BC70472B
:100790003F801CF0704770B50446016980890125CF
:1007A00030B1401E0004000CA08118BF002501D00C
:1007B000284670BDB1F90400097A90FBF1F001B24E
:1007C000A06803F061F90120A073F1E7C07B7047D6
:1007D0008360C0E9001200218173C1737047807B80
:1007E00070470000054902460878002803BF044806
:1007F00001230B700020026170470000C10001203E
:1008000044060120C173704770B504460569002293
:100810004068114605F0EEF9B5F90410606803F080
:1008200033F90021206803F0F5F900221146206811
:1008300003F063F9EA88B5F90210206803F05DF966
:10084000E888298848434FF47A71B0FBF1F0411CE5
:10085000A18170BD816A0A6ED268526A896D514366
:10086000426A12784A43D31702EB13421214CB1791
:1008700001EB1341028309144183104670470000C5
:100880002DE9F007826A00234FF0010AD2F860C018
:100890005589DCF80C409CF80880A582A8F1010578
:1008A000002D14DD02F1100418F0010F08BF54F8F8
:1008B000043F002667686D1008D000BF04F10804EB
:1008C0003B44D4E900974E446D1EF7D13344B8F150
:1008D000010403D402EB840464692344BCF8064099
:1008E0009CF808505C43BCF802306B4394FBF3F374
:1008F0000B80818B591A0184838392F85410B2F8CB
:100900005C3002EB810149694B43416A0C784989AB
:100910006343BCF8024093FBF4F3C3EB034393FB44
:10092000F1F1C18392F85400401C82F8540092F80F
:1009300054109CF808300020994208BF82F85400F7
:1009400092F85E1000291CBF4FF0000A90705046CC
:10095000BDE8F0077047806A01218170704770B56B
:10096000846A226E2189D068038A4FF00105994379
:100970002ED1E1680968237913F0010F04BF2388A1
:10098000258007D0416A23884FF0000C5B1C9BB286
:10099000A4F800C0B0F800C01CF0100FB4F810C0EC
:1009A000A1EB0C0C0AD05288C3F1010303FB02C275
:1009B00094F8543004EB83035A6108E052885B1EBC
:1009C00003FB02C294F8543004EB83035A61218282
:1009D000018A11F0010F08BF70BD012103F03FFB38
:1009E0002088B0F5006F04BF84F85E5070BD208889
:1009F000401C208070BD00002DE9F04F856AA5B035
:100A000010202E6E4FF00009CA46F76803900002CE
:100A10000690CDF88C9007F14000E8601020288106
:100A2000688130794C464FF00C0BC84600281CBF3B
:100A300002202390B7F1804F0CD0A7F18040B0F591
:100A400080600FD1DFF8C0824FF02069DFF8BCA2D0
:100A500002242DE0DFF8B8824FF0C069DFF8B4A2BD
:100A6000012425E0A7F18040B0F5006014D14FF4D7
:100A7000006006904FF0080BA5F808B0CDF80CB058
:100A8000A5F80AB007F13C00DFF88C824FF08069CE
:100A9000DFF888A2E8600AE0A7F18040B0F5406086
:100AA00006D1DFF87C82DFF87CA24FF04069022497
:100AB0000121306902F080FD0121480502F070FD3E
:100AC000012140F2FF1002F06BFD0AA800F048FB84
:100AD000308C0A9002208DF82C0000208DF82F0019
:100AE0000AA9F06900F0D6FA308D0A9002208DF83C
:100AF0002C0000208DF82F000AA9706A00F0CAFAB5
:100B0000308C0021012804D0491C400889B20128FA
:100B1000FAD12246F06900F005FB308D0021012852
:100B200004D0491C400889B20128FAD12246706AD3
:100B300000F0F8FA384603F0B4FA0FA803F0B0FD5D
:100B40000024ADF83C407088ADF84440401E109041
:100B5000ADF83E400FA9384603F062FD0CA803F043
:100B60001BFCADF830407089ADF838000CA9384650
:100B700003F07FFB0420ADF830000CA9384603F0E9
:100B800078FBADF830B00CA9384603F072FB0122B7
:100B90003846069903F07DFA002203213846239B4C
:100BA00003F040FB5046FFF7DDFC281DCDF84890D0
:100BB000CDE913804FF00108CDE915484FF40060EE
:100BC000CDE9184080001A9040111B901794400204
:100BD000CDE91C0412A9CDF878805046FFF79EFDA0
:100BE000307D8DF8900003208DF891008DF89240B3
:100BF0008DF8938024A801F069FA0121384603F0AA
:100C00002EFA2989384603F02AFA0122114638467D
:100C100003F0CAFB01223846039903F0C5FB7C624E
:100C20007088611EB1FBF0F0A865F0884CF6CD41EC
:100C30004843C00CA5F85C0001215046FFF788FC32
:100C40000121384603F011FA327A002A04BF25B098
:100C5000BDE8F08F002002F00F010346002907DDF8
:100C600005EB800C401C5B1CCCF814409942F7DC6F
:100C70009142A4BF25B0BDE8F08F00BF05EB800313
:100C8000401C5C6105EB8003401C5C6105EB80034C
:100C9000401C5C6105EB8003401C5C6105EB80033C
:100CA000401C5C6105EB8003401C5C6105EB80032C
:100CB000401C5C6105EB8003401C5C6105EB80031C
:100CC000401C5C6105EB8003401C5C6105EB80030C
:100CD000401C5C6105EB8003401C5C6105EB8003FC
:100CE000401C5C6105EB8003401C5C6105EB8003EC
:100CF000401C5C6105EB8003401C10315C6191423B
:100D0000BCDB25B0BDE8F08F1004004088600240D5
:100D100010000040A060024010080040B86002408F
:100D2000100C00402860024070B50D4602F094FEA1
:100D30000E4904460878002803BF0D4801220A70B6
:100D400000200566A0620B4820602878214603F049
:100D5000AFF8094860600948A0600948E0600948A8
:100D6000206109486061204670BD0000E20001205A
:100D7000DC0901205F090108F90901085709010888
:100D800055080108810801088D0D0108806A4FF699
:100D9000FF730029006EC268B8BF494289B2B8BF6C
:100DA000591A40884843B0FBF3F080B25062704754
:100DB000034603480A461946006803F071BD000067
:100DC000B4000120034B0A4601B21B68184603F029
:100DD00079BD0000B4000120024A52F820000268E8
:100DE0001047000058060120024B53F8200003680A
:100DF000184700007C000120B0F5807F04BF082068
:100E0000704720DC102804BF042070470EDC012846
:100E10003ED0022804BF01207047042804BF0220EE
:100E20007047082804BF0320704731E0202804BF22
:100E300005207047402804BF06207047802804BF63
:100E40000720704724E0B0F5805F04BF0C20704796
:100E50000FDCB0F5007F04BF09207047B0F5806F4C
:100E600004BF0A207047B0F5006F04BF0B20704725
:100E70000EE0B0F5005F04BF0D207047B0F5804F65
:100E800004BF0E207047B0F5004F04BF0F2070471D
:100E90000020704710B504460420A4F82402E0683E
:100EA000FFF7A2FA002084F81E0210BD70B50A46B2
:100EB000C160044601461046FFF7AAFA002584F8EF
:100EC0001251E068FFF795FAE068FFF78DFA84F8B1
:100ED0001E5270BD0B4A014600231078002803BF44
:100EE00009484FF0010C82F800C00020A0F824321D
:100EF000A0F818318A68C0F82022C968C0F8141117
:100F00007047000078000120F0010120806800F0A7
:100F1000CDBD806800F0D6BD81607047D1E9032364
:100F200049690260C0E90131704700687047006894
:100F300070474361C0E903127047000010B50446D2
:100F400000EBC4021148002100EB8202104811603E
:100F50005160D1601161918351619161D18350F8E9
:100F6000240001F06FF90B48002150F8240001F033
:100F700069F9094850F8240002F0B7FD074850F815
:100F80002400BDE8104001F0CCBA00002C01012083
:100F900024000120280001201C0001203400012031
:100FA0004169C0894FF47A7210FB02F00988B0FBE6
:100FB000F1F080B2704700897047018170470000EE
:100FC00010B50021A0F8241290F81E320122E3B9D6
:100FD00080F81C1180F81D1180F81E115FF07F034E
:100FE00000EB020C921C8CF81E118CF81F115B1E7A
:100FF000F6D1012180F81E12C36800F58E714FF4FE
:1010000081721846FFF7E6F90222104610BD000073
:101010002DE9F04104461D4694F812310120002BC1
:1010200018BFBDE8F0812174A5F1010C6574BCF115
:10103000000F17DD501E002115F0010F03D110F82D
:10104000011FA174012143785FEA6C0C0AD000BF34
:10105000661810F8027FB3744378891CF774BCF1EA
:10106000010CF5D1681E02D4115C2044817404F196
:101070001000FFF7CFF961198874022084F812017B
:10108000607C04F11001C21CE068FFF7B7F9022090
:10109000BDE8F0812DE9F001002201255FF0030693
:1010A000D1F800C005FA02F30CEA030C9C4533D1D9
:1010B00007684FEA420C06FA0CF4A74307600F7961
:1010C000D0F8008007FA0CF747EA080707600F79A5
:1010D000012F18BF022F14D18768A74387604F796B
:1010E000D0F8088007FA0CF747EA080787604768D6
:1010F00027EA0303436043688F799740BFB23B43BD
:101100004360C368A343C360CB7903FA0CF3D0F800
:101110000CC043EA0C03C360521C102AC0D3BDE8C4
:10112000F00170474B07DB0E9A40C90800EB8100C5
:10113000016A4FF00F0C0CFA03F399430162016A44
:1011400011430162704781B041F480320092C26164
:10115000C1610099C161C169C069009001B0704767
:101160004FF6FF7101600021017141718171C17100
:101170007047002A14BF018341837047014602482B
:10118000006803F0B1BB0000B40001200148006812
:1011900002F073BD1800012010B504F023F80028F8
:1011A00008BF10BD0022BDE8104003211046FFF724
:1011B0001BBEFEE710B5214982B01F480860C0146D
:1011C00000F0BCFF1E49081F00F010FE1D484FF440
:1011D000FA610068B0FBF1F0411EB1F1807F2AD2C4
:1011E0004FF0E02041611849F02281F8142D0024CD
:1011F000846107220261802081F8140DA020491E1D
:1012000081F8140D11490E48CDE90001031F011D9D
:101210000122022004F01CFA002003F0BDFF0C495B
:10122000A1F108030860A1F10C020121009403F070
:10123000A0FF02B010BDFEE760000020B00001205A
:10124000AC000120540001200FE000E078610108AB
:10125000B40001202D4A2E4910B42E486FF002032D
:10126000914223D0B0F1004F42D2181A4FEAE07CED
:1012700000EB9C74A010C0F1000CBCF1000F15DD58
:10128000101F091F14F0040F03D050F8042F41F869
:10129000042F5FEA6C0209D0D0F804C0C1F804C082
:1012A00050F808CF41F808CF521EF5D11B481A4A12
:1012B0000021B0F1004F22D2181AC31700EB937C23
:1012C0004FEAAC004342002BDCBF10BC7047101F3C
:1012D0001CF0040F18BF40F8041F5A1004BF10BCC4
:1012E0007047416040F8081F521EFAD110BC704789
:1012F00052F804CB41F804CB001FF9D1D6E742F8ED
:10130000041B001FFBD110BC7047000058A001084F
:1013100000000120EC000000EC000120540D000052
:101320000148006803F030BFB400012010B5044646
:10133000406802F032FC0146A068016110BD0068FF
:10134000012102F0B3BC10B5040008BF10BD207E1F
:10135000012818BF10BD217B0020012904D00229DB
:1013600010D003291ED026E0A16881F822000121B7
:10137000606802F04FFCE28AB4F90E10606802F077
:10138000BCFB0CE0A16881F822000021606802F03B
:1013900041FCE28AB4F91010606802F0AEFB50B173
:1013A000022009E0A168012081F82200A068D4F899
:1013B00012100161F4E70320207610BD01230373AE
:1013C000C181C28203764376704702230373018290
:1013D000C28201210176002141767047006802F047
:1013E0001FBC10B5406802F0F2FBBDE8104002F0EF
:1013F0001FBB407E70478068006870478068406807
:1014000070478068C0687047806800697047027BD9
:101410000021012A08BFB0F90E1008467047406845
:1014200002F0C7BB006802F028BC8068B0F91C005D
:101430007047806880697047806840697047836042
:10144000C0E9001200210173C1810182C1820176CD
:1014500070470146007E0022022808BF012305D004
:101460001346032808BF4FF0010C01D04FF0000CC9
:1014700053EA0C0318BF0A7670470000064B024679
:101480001978022928BF002004D2044800EB41103B
:10149000491C1970C261704700000120EC00012056
:1014A0000322027341820914818201210176002105
:1014B0004176704780684182704710B504460068E5
:1014C000032102F0F3FB012804BF0121217610BDA6
:1014D0000068072102F0EABB014661F30F0044F601
:1014E000E61211FB02F244F6E61311FB23F10A4463
:1014F00011444942C913B1F5004FA8BF47F6FF7127
:1015000004DA11F5004FB4BF054909B261F31F4079
:1015100011F5004F04BF48F2010161F31F4070470D
:101520000080FFFF70B50546084600F057F82AB264
:1015300003B212FB03F14FEA254C05141CFB05F026
:10154000081AC0131549B0F5004FA8BF47F6FF7041
:1015500004DA10F5004FB4BF084600B260F30F0480
:101560000F4E10F5004F08BF66F30F0402FB05F0A5
:101570000CFB0300C013B0F5004FA8BF47F6FF7186
:1015800003DA10F5004FA8BF01B2204661F31F40F7
:1015900011F5004F08BF66F31F4070BD0080FFFFCC
:1015A0000180FFFF10B50446084600F017F814FB51
:1015B00000F12214031412FB03FC614441F3CF3CFD
:1015C00029466CF30F0114FB03F312FB00F0C01A61
:1015D00040F3CF3060F31F41084610BD00F50041D5
:1015E000890911F4407C00F50041C1F387121749C5
:1015F000C2F1FF0317D0BCF5807F1DD0BCF5007F82
:101600000AD0BCF5407F18BF704731F8133031F86D
:10161000121063F31F400DE031F8122031F813105F
:1016200062F31F400FE031F8122031F813105242DC
:1016300062F31F40494206E031F8133031F81210CE
:101640005B4263F31F4061F30F007047986101082C
:1016500010B50446406C8C460160C0E94132214619
:101660006046FFF759FC646C2068FFF713FCFF200D
:1016700084F80301221D04F203132068BDE8104022
:101680000021FFF79DBC000010B50C4603F084FD5F
:10169000054B1978002903BF044A01211970002263
:1016A000C2F80C41426410BD790001201C040120E5
:1016B0002DE9F0430026456C8FB014460F46814655
:1016C0005FEA511813D0A8F10102002103F0B4FD24
:1016D000002808BF0B2000F0CF81D5F8080107F0E3
:1016E0001F0720B1A8F10102002103F0A5FD0B2F77
:1016F00080F0C181DFE807F0F70682F6F5F5F4F334
:10170000F2F1F000277805208DF83000182F59D01D
:101710000FDC38466ED2DFE807F0316D6D3F6D5556
:10172000555555555555555555555E5E6D6D555527
:101730005555552F46D013DC472F4CD008DC1C2FB5
:1017400031D01D2F37D0412F3CD0462F43D051E010
:10175000482F40D04F2F1CBF532F542F32D049E079
:10176000A7F15600102845D2DFE800F02C2C2C2CD5
:10177000443544444444442C44442C2C6478394635
:101780002246D5F8080103F057FD2246394648465F
:1017900003F052FD064698E001466278484603F0A1
:1017A0004BFD064691E062780021D5F8080103F070
:1017B0003EFD012689E062780121D5F8080103F099
:1017C00036FD81E06078A17800EB01223946484679
:1017D00003F032FDE5E76078A178227900EB012083
:1017E000E178090401EB026142183946484603F0EA
:1017F00023FDD6E702208DF8300066E02178032033
:101800008DF83000662980F03981DFE801F0337D02
:1018100033337D6D6D6D6D6D6D6D6D6D6D6D6D6D5C
:101820006D6D6D6D6D6D6D6D6D6D444F7D6D6D6D1F
:10183000336C6C6C6C6C6C6C6C6C6C6C6C6D6C6C20
:101840006C6C6C6C6C6C6C6C6C6C6C6C6C6C6C6DD7
:101850006C6C6C6C7D7D7D6D6D6D6D337D6D6D6DB6
:101860006D6D6D6D6D6D6D6D337D6C6D6D6D6D6DD3
:101870006C6C6D6D484603F037F80090B0F1FF3F97
:1018800000F0FC8001236A46F0212868FFF7C0FBC6
:101890000FB0BDE8F083D5F80801002800F0EE8015
:1018A000002103F019F88DF80000EBE7D5F80801E6
:1018B00058B1012103F010F88DF8000001236A46A9
:1018C000F0212868FFF7A4FB0126002E0BD000238F
:1018D0001A46F0212868D5E0BFE09CE06CE058E0B3
:1018E0002AE0C8E020E085E0484602F0FDFF0090D5
:1018F000B0F1FF3F7ED002236A46F0212868FFF74F
:1019000087FB0FB0BDE8F083484602F0EDFF009082
:10191000B0F1FF3F6ED004236A46F0212868FFF73C
:1019200077FB0FB0BDE8F083217807208DF83000F9
:10193000484602F07BFF34E70020029003900490B9
:10194000059006900790089002AA099005E01318E8
:10195000401CC0B2D9701D2804D2D5F80411095C0E
:101960000029F4D1D5F80411421D20238A5C8DF89A
:101970000820C21D0930895C8DF80910D5F80411C2
:1019800002AA085C8DF80A00F0212868FFF740FBE6
:101990009DE720796179E37800EB012082B220781D
:1019A000617800EB0120A178090401EB0361014497
:1019B000484602F075FFF4E60DA8009021780EABC2
:1019C00001AA484603F0B0FBBDF9380000EB400027
:1019D00040008DF82800010A8DF82910010C8DF8BF
:1019E0002A10000E8DF82B00BDF834008DF82C0065
:1019F000000A00E042E08DF82D00BDF804008DF8EB
:101A00002E00000A8DF82F0008230AAAF02128686A
:101A1000FFF7FEFA32E0E079227AA37800EB0220A9
:101A200082B2607894F804C000EB0320E378217858
:101A30001B0403EB0C631844154B94F806C083FB9E
:101A40000030A0EBE07003B2607900EB0C2000B234
:101A50000090484603F0DCFDA3E620786178E27848
:101A600000EB012001B2A07800EB022002B2484650
:101A700003F0D0FB2BE701208DF8300001230CAAE6
:101A8000FF212868FFF7C4FA0FB0BDE8F08300001B
:101A9000ABAAAA2A08B5406C0A218DF8001000688C
:101AA00001236A46FF21FFF7B3FA08BD08B5406C71
:101AB00008218DF80010006801236A46FF21FFF716
:101AC000A7FA08BD08B5406C09218DF80010006820
:101AD00001236A46FF21FFF79BFA08BD10B5446C4D
:101AE0002068FFF7D7F9FF2084F80301221D04F2D4
:101AF00003132068BDE810400021FFF761BA006BB6
:101B00007047406C7047006C7047C06870478068D1
:101B1000704740687047C06B704740697047006805
:101B20007047C069704780697047406A7047806A33
:101B30007047C06A70470FB44C2210B503A9FEF776
:101B40003FFB10BC5DF814FB084B024619780229D4
:101B500028BF002007D201EB8100DFF814C0491C28
:101B60000CEB00101970C264704700005000012097
:101B700050010120F8B5954C608800281CBF608892
:101B8000401E40F00D810020ADF8000090486946ED
:101B9000006801F009FF06468E48006800F028FA48
:101BA0008D48006802F069F8132880F0F880DFE8BB
:101BB00000F00A55951891B8CAE0F4F2F6F6F65F0F
:101BC0006B76313E4900A06CFEF700FE002800F065
:101BD000E6800021A06CFEF715FE7F480321006817
:101BE00014E0A06CFEF7FBFD48B17C48006800F0F3
:101BF000A2FC1420A08078481021006806E0012192
:101C0000A06CFEF7FFFD74480121006802F04EF859
:101C100000F0C5B8A088002840F0C1806F480021BE
:101C2000006800F06BFB6C4811210068EEE76B4820
:101C30000121006800F062FB00284AD066481221AA
:101C40000068E3E76248006801F0EDFE62480421A5
:101C5000006802F02BF801283BD133E05F480068B0
:101C600000F069FC1420A0805B480D210068CDE7DE
:101C7000A08800282DD159480021006800F03EFBC3
:101C800055480E210068C1E754480121006800F062
:101C900035FB00281DD050480F210068B6E7504999
:101CA000012081F822004F48616C006801F0B6FF06
:101CB000A06CFEF7A9FD48480221006801F0F6FF7C
:101CC00001286CD10020FFF739F94448006800F082
:101CD0002DFC64E040480521006897E7A06CFEF702
:101CE0005AFD90B13D48006800F01BFC3D4D0121BC
:101CF000286801F08FFF05F11C000168286801F0D9
:101D00008DFF281F0721006880E7002060F30F0582
:101D10003448006801F0BAFE60F31F4530480561A1
:101D20003DE031480068FFF70EFB2D4D95F822008D
:101D300028B92C48006801F0A9FEA883288226480B
:101D40000621006862E728480068FFF7FCFA244D86
:101D500095F8220028B92348006801F097FEA8836F
:101D60002882E6B91C4800222021006801F063FFA8
:101D700015E01A48006800F0D4FB0020FFF7DEF8F9
:101D80001448006800F066F94FF44870E08012488B
:101D9000082100683AE715E0FFE7E08870B103200A
:101DA0006080A08810B1A088401EA080E088002834
:101DB00008BFF8BDE088401EE080F8BD0648092154
:101DC000006823E70448002100681FE704000120A1
:101DD00038000120400001201800012034000120BB
:101DE0002C0101201C000120100001202DE9F34FDF
:101DF00093B07048FEF7D0FA6F4908606F49A1F1BF
:101E0000760001F0A7F86E4D286000F0A1FA01F00D
:101E1000F3FA01F039FFA5F11C07386001F02FFF3C
:101E2000684800F0E7F9A5F1140BCBF8000000F0CA
:101E3000F9F96549A1F10C00FEF776FF2E1D30601F
:101E400001F007FE614801F0D5FEA5F118042060FD
:101E50003268DBF8001001F0BCFE5D4901F1FA00C8
:101E600003F0DEFFA4F11808C8F8440001F0F1FD0A
:101E70005848FEF7B7FCC8F8480033682168D8F81E
:101E80004420FEF7A5FC544800F0B4F904F1080A18
:101E9000CAF8000000F0C6F9504800F0ABF904F1B0
:101EA0000C01086000F0BEF94D49A1F59D7001F0EC
:101EB00001FD04F11008C8F80000296803F087FE4E
:101EC000484800F0F7F904F12401DFF81C9108609C
:101ED000CDF84090D8F80010119110A900F0D0F87A
:101EE0004249A1F10E0003F0DDFF04F11401086086
:101EF000296802F089FC012089F82200206801F09D
:101F00004CFEC9F810000020FFF718F80020FFF77A
:101F1000B5FAA4F10C09344BC9F8000022683968FD
:101F2000FFF78DFA206801F04AFED9F8003001462B
:101F300000221846FFF742FA1398D9F80010016002
:101F40000020FFF701FEA4F108098646C9F8000049
:101F5000D5F800C0356804F10C00DAF800203E68BE
:101F6000183709F12C0ADBF80010036800202468F8
:101F70003F68D8F80080DAF800A0DDF800B0CDE9BD
:101F8000000CCDE90205CDE9040B0897CDE90980E5
:101F9000CDE90B0ACDE906460D900E900F907046E4
:101FA000FFF7C9FD1498D9F80010016015B0BDE81D
:101FB000F08F00007460010844000120945F010864
:101FC00034000120345F0108286001087C5F0108AB
:101FD000225F0108546001084C5F0108645F01083A
:101FE00060600108305F01082C0101202A5F0108B0
:101FF00070B5816800F10C048847B4F8001124F82A
:102000001100B4F80011A4F80211491C89B2A4F817
:102010000011802924BF0021A4F800112146B4F941
:102020000020B4F9025000234FF03F0C31F9046F47
:102030002A44B1F902503344BCF1010CF6D1D11855
:10204000B4F9FE201144CA1701EB5261C911A4F87A
:10205000041170BD70B5054600F10C044FF4807199
:102060002046FEF7C6F80020A4F80001A4F80201FB
:1020700028466968BDE870400847B0F9100170470C
:1020800070B502680446904704F10C054FF4807166
:102090002846FEF7AEF80020A5F80001A5F80201D9
:1020A00020466168BDE87040084700000449087890
:1020B00000281CBF00207047024801220A707047A8
:1020C000C200012068060120FEE7704710B4C27804
:1020D00001784FF0010C12B3174A12680F2402F472
:1020E000E062C2F5E062C2F30722C2F10403D44009
:1020F000427801F1E0219A40837823401A4312018B
:1021000081F80024007800F01F010CFA01F1400969
:10211000800000F1E020C0F8001110BC704701F011
:102120001F000CFA00F04909890001F1E021C1F813
:10213000800110BC704700000CED00E0034940F046
:10214000FD7040F080600860704700000CED00E01A
:102150008069002818BFB0F9040070478069002822
:1021600018BF81807047000070B4B0F900200024CF
:1021700002FB01F6B0F90220B0F910C0B0F912303C
:10218000002A04BF0021416014D045684A43A918C1
:1021900005D5002DC4BF002A6FF0004103E0002DDB
:1021A000BCBF002A0F4982688A42A5BFC26891421B
:1021B0004260416042694168957D127D41FA05F5B2
:1021C00046FA02F22A446245C4BFACEB02046246FE
:1021D00003DC9342C4BF9C1A1A462144416070BC80
:1021E00010B2704701000080B0F902007047B0F9EA
:1021F00000007047094B02461978082928BF0020C3
:1022000007D2C1EBC100DFF818C0491C0CEB8000FD
:1022100019700021C0E9052170470000C3000120AA
:102220008007012041690A8802804A884280002292
:1022300042608A688260CA68C2600A8A0282498AE9
:10224000418270474160704741807047018070470C
:1022500070B5D0F8140102688468D168526911FB26
:1022600002F311FB3231CA1701EB12410D14406821
:1022700003F0A7FC216848434FF4167190FBF1F07E
:10228000684300EB40000649400081FB00108110CC
:10229000A1EBE070C11700EB1140001470BD00000D
:1022A000676666667047D0F814010A68026049687C
:1022B0004160704710B50446FFF7F8FE084A1178F0
:1022C000002903BF07490123137000218C60C0F867
:1022D000141105490160054941600549816010BD3F
:1022E000C400012060080120A7220108A5220108DE
:1022F00051220108C2691047C16B084770B50446F6
:1023000000F14406002511B101290CD019E000228A
:1023100080F85020C1688847A06D4088F081A06D8A
:10232000408870B909E0F089002808BF012508D06D
:10233000401E0004000CF08103D1616920468847EB
:102340000125284670BD826B104782681047000047
:10235000826D054B12885A43120CA0F844200022CB
:1023600080F8502041680847D076030007490246AC
:1023700000230878002803BF05484FF0010C81F8BE
:1023800000C000200364826570470000C500012082
:102390006C08012030B4B0F844300AB202FB03F2FA
:1023A000836D4FEA214100F144041B8801FB03F1D6
:1023B0004FEA4101C1F1000101EB0203A1EB02026E
:1023C00003EBD37302EBD2725B104FEA620251D57A
:1023D000002A19DA04216180D0F858C0991ACD1763
:1023E000BCF800C001EB95314FEA9C0C0CEBA14C02
:1023F000D11702EBD1310CEB6142D91703EBD1318C
:10240000ACEB6143016B86E0002919DC0323638098
:10241000D0F858C08B1ADD17BCF800C003EB953319
:102420004FEA9C0C0CEBA34CD31702EBD332CB1727
:102430000CEB624201EBD331A2EB6143C16A6AE06B
:1024400002226280D0F858C05A1AD517BCF800C0D2
:1024500002EB95324FEA9C0C0CEBA24CDA1703EB23
:10246000D232ACEB6243CA1701EBD23103EB6142CB
:10247000816A50E0002A19DB01216180D0F858C040
:10248000991ACD17BCF800C001EB95314FEA9C0CAE
:102490000CEBA14CD11702EBD1310CEB6142D917F7
:1024A00003EBD131ACEB6143416A34E0002919DC24
:1024B00005226280D0F858C05A1AD517BCF800C05F
:1024C00002EB95324FEA9C0C0CEBA24CDA1703EBB3
:1024D000D232ACEB6243CA1701EBD23103EB61425B
:1024E000416B18E000236380D0F858C08B1ADD17C9
:1024F000BCF800C003EB95334FEA9C0C0CEBA34CEB
:10250000D31702EBD332CB170CEB624201EBD33182
:10251000A2EB6143016AA4F804C0E280238130BCCD
:102520000847002280F85020C1680847002280F840
:10253000502001690847012280F85020816908472E
:1025400070470000CAB207230D48C1F30721092ACA
:102550000BD9D0F80CC00A3A02EB420293402CEAA5
:10256000030391401943C1607047D0F810C002EBDB
:10257000420293402CEA03039140194301617047E2
:10258000002001402DE9F05FC46D4FF0000A804645
:10259000D4F82890D9F82C50C4F800A0C4F804A0AE
:1025A000C4F808A084F817A0288C20F0550020F467
:1025B000A85028846148C8F8080099F80B00604FBB
:1025C000C003E06099F81300C0032061D8F85C00F4
:1025D000866A3868D6F82CB020F00C003860D7F83E
:1025E000000120F00C00C7F800010121584601F05D
:1025F00036FD01221146584601F0D6FE012158460B
:1026000001F03CFD96F85800022811D1B6F8601090
:102610000122F06DFEF7ADFDB6F86C100122B06E30
:10262000FEF7A7FDB6F878100122706FFEF7A1FD46
:10263000E07D4FF0100B102808D2A88910F0010F90
:1026400008BF84F817B0E07D1028F6D384F817A0EF
:102650003C48C8F8080099F81B00C003E06099F8EE
:102660001B00C0032061D8F85C00866A3868D6F881
:102670002C9020F00C003860D7F8000120F00C00FE
:10268000C7F800010121484601F0E9FC012211468A
:10269000484601F089FE0121484601F0EFFC96F81A
:1026A0005800022811D1B6F860100122F06DFEF733
:1026B00060FDB6F86C100122B06EFEF75AFDB6F858
:1026C00078100122706FFEF754FDE07D082808D2D3
:1026D000A88910F0010F08BF84F817B0E07D082822
:1026E000F6D32068C00820606068C0086060A068F9
:1026F000C008A0601448C8F80800288B20F0080023
:1027000020F400602883A88B20F0080020F40060EB
:10271000A883A08A6863A08AA863A08AE863298B3B
:1027200040F6080001432983A98B0843A883288C1D
:1027300040F2555108432884BDE8F09F7D280108E8
:1027400000200140B12801087D27010810B5094C7F
:10275000204661630221FDF769FD074901200860F9
:102760002046016811F0020FFBD0BDE81040FDF7D4
:102770007FBD0000002001407801244230B4C26DCA
:102780000023D2F820C0CCF8003093753A4C90F872
:102790004600DFF8E0C0650C062824BF30BC704757
:1027A000DFE800F0264A4A030326DCF83C00136801
:1027B000A3EB400010F5004FD8BF0C8004DDB0F54E
:1027C000004FACBF0D800880DCF83C015268A2EBE2
:1027D000400010F5004F02DC4C8030BC7047B0F573
:1027E000004F02DB4D8030BC7047488030BC7047E2
:1027F000DCF83C005368A3EB400010F5004FD8BF55
:102800004C8004DDB0F5004FACBF4D804880DCF853
:102810003C019268C2EB4000B1F90220801AB0F589
:10282000004FA2BF0D8030BC704710F5004FD4BFE1
:102830000C80088030BC7047DCF83C001368A3EBC8
:10284000400010F5004FD8BF0C8004DDB0F5004FFC
:10285000ACBF0D800880DCF83C019268C2EB400000
:10286000B1F90020801AB0F5004FBBDA10F5004F27
:10287000BBDCB1E7002001400180FFFFC06D0021FB
:10288000026A11608175C17D102928BF7047074910
:102890000268CB6B1A4402604268D1F83C111144C3
:1028A0004160C17D491CC175704700000020014096
:1028B000C06D0021026A11608175C17D082928BFA1
:1028C0007047064A8168D36B19448160D2F83C2175
:1028D00011448160C17D491CC175704700200140D1
:1028E00010B4C16D00F1440401208B6ADA6A887566
:1028F0001C48D0F800C00CF00C0CBCF1080F05D03F
:10290000BCF1000F08BFDB8806D013E0036803F0BA
:102910000C030C2BFAD10DE0D2F824C09C45FBD35C
:10292000036803F00C03082B04D1036803F00C03C5
:102930000C2BFAD1CB698360CB69C0F80831138CBA
:1029400043F4805313848A6982608A69C0F808213D
:10295000CA6882630969C0F8381104F1100010BC1C
:1029600070470000002001402DE9F04F82469FB0E3
:10297000DAF85810DAF85C7044300988BC6A490803
:10298000B98261794FF00109012914BF01210021A9
:102990000174FE48016841F48051016001218015F5
:1029A00000F022FE0121480200F01EFE012140F24B
:1029B000FF1000F0F5FD012000F02EFEE16AA1F10C
:1029C0008040B0F580304FF0010105D1012000F0CA
:1029D0000BFEEF48386206E0022000F005FEED48ED
:1029E0004FF0030938620EA8FEF7BAFB208A0325D0
:1029F0008DF83C5000260E908DF83F600EA9E068DF
:102A0000FEF748FB218AE068FEF79DFB208B0E90C5
:102A10008DF83C500EA96069FEF73CFB218B606984
:102A2000FEF791FB208C0E908DF83C500EA9E069CA
:102A3000FEF730FB218CE069FEF785FBA08FFEF7E7
:102A4000DBF9A36B01464A461846FEF76BFBB4F868
:102A50004800FEF7D1F9636C01464A461846FEF776
:102A600061FBB4F85400FEF7C7F9236D01464A46EE
:102A70001846FEF757FB8DF83E608DF83F60022048
:102A80008DF83C008DF83D00A08F0E900EA9A06B34
:102A9000FEF700FBB4F848000E900EA9606CFEF73C
:102AA000F9FAB4F854000E900EA9206DFEF7F2FA70
:102AB000A18FA06BFEF747FBB4F84810606CFEF7DF
:102AC00042FBB4F85410206DFEF73DFB94F858001B
:102AD0004FF00108012802D0022843D06BE0B4F87F
:102AE0006000FEF789F9E36D01464A461846FEF795
:102AF00019FBB4F86C00FEF77FF9A36E01464A4655
:102B00001846FEF70FFBB4F87800FEF775F9636F0F
:102B100001464A461846FEF705FBB4F860000E90E1
:102B20000EA9E06DFEF7B6FAB4F86C000E900EA98F
:102B3000A06EFEF7AFFAB4F878000E900EA9606FA1
:102B4000FEF7A8FAB4F86010E06DFEF7FCFAB4F8EE
:102B50006C10A06EFEF7F7FAB4F87810606FFEF70D
:102B6000F2FA28E08DF83C80B4F860000E900EA9CF
:102B7000E06DFEF78FFAB4F86C000E900EA9A06E0F
:102B8000FEF788FAB4F878000E900EA9606FFEF791
:102B900081FAB4F86010E06DFEF7D5FAB4F86C1065
:102BA000A06EFEF7D0FAB4F87810606FFEF7CBFA9B
:102BB00002208DF83C0094F87C00C0B1B4F8840089
:102BC000FEF71AF9D4F8803001464A461846FEF757
:102BD000A9FAB4F884000E900EA9D4F88000FEF78C
:102BE00059FAB4F88410D4F88000FEF7ACFADAF899
:102BF0005C90D4F82CB05846D9F8285001F051FA1E
:102C000010A801F04DFD287910A9401EADF8400034
:102C10002020ADF84200B9F8140011904FF48070F4
:102C2000ADF8480095F826008DF84A00584601F0A6
:102C3000F7FC04A801F0D2FC6020ADF81000ADF85C
:102C40001280B9F8140040080690A88EADF81C0058
:102C5000E88FADF8200095F85800012818BFADF8AE
:102C6000146010D004A9584601F0A6FBB5F8400046
:102C7000ADF81C00B5F84A00ADF8200095F85800F2
:102C8000012814D10BE00420ADF81400B5F85A0067
:102C9000ADF81E00B5F86200ADF82200E2E7B5F825
:102CA0006400ADF81E00B5F86E00ADF8220004A96E
:102CB000584601F0BBFBB5F84C00ADF81C00B5F868
:102CC0005600ADF8200095F85800012807D1B5F856
:102CD0007000ADF81E00B5F87A00ADF8220004A926
:102CE000584601F0F2FB7020ADF81000ADF81C6002
:102CF000ADF82060DAF85C0004A9808A401F0690D5
:102D0000584601F02EFC0821584601F089FB0821A5
:102D1000584601F0D0FB0821584601F01CFC082160
:102D2000584601F051FC0AA801F090F94FF4006AEE
:102D3000ADF828A04FF48060ADF82A008010ADF8FF
:102D40002C00A88C4008ADF82E0095F87C0090B1BE
:102D50004FF48050ADF83000B5F87E00ADF8320089
:102D6000ADF834608021584601F07CF901228021C1
:102D7000584601F019FB0AA9584601F055F91021EF
:102D8000584601F035FC0621584605E0303802402F
:102D9000300420423084204201F038FC01215846A2
:102DA00001F05EFA287A022803D06879012810D051
:102DB00015E0687A012804BF95F82600032808D199
:102DC000ABF830800121584601F04AFA0320ABF8F5
:102DD0003000B9F81400411E584601F01FFC534D55
:102DE000E06A4FF00101A8420CBF01200220FDF76C
:102DF00075FB12208DF84C0002208DF84D008DF8E7
:102E00004E608DF84F8013A8FFF760F9E06AA84282
:102E10000CD119208DF84C008DF84D608DF84E6066
:102E20008DF84F8013A8FFF751F90BE02C208DF897
:102E30004C008DF84D608DF84E608DF84F8013A8D2
:102E4000FFF744F9DFF8E8B001215846FDF7F1F942
:102E5000DFF8E09001214846FDF7EBF960790128A1
:102E600007D11A962068CDE91B061AA81D96FDF712
:102E7000E9F914A8FDF785FA8DF8546014968DF8D9
:102E80005560CDE9176A8DF8648014A95E465846EE
:102E9000FDF714FA14A94846FDF710FA012130464F
:102EA000FDF766FA01214846FDF762FAA37CE17A54
:102EB00001223046FDF72CFAA37EE17C0122304648
:102EC000FDF726FA94F82230E17E01223046FDF724
:102ED0001FFAA37CE17A01224846FDF719FAA37E86
:102EE000E17C01224846FDF713FA94F82230E17E96
:102EF00001224846FDF70CFA04213046FDF796F909
:102F0000012240F207413046FDF7CCF9E06AA842C1
:102F1000B06820F47C10F8610CBF40F4801040F4DD
:102F2000F010B8611FB0BDE8F08F00000000014054
:102F30000020014000210140C06D806AC16A00206C
:102F40000A8A12F0800F08BF704740204FF67F7248
:102F50000A82704770B50D46FFF708FA1849044613
:102F60000878002803BF174801220A7000208562F4
:102F7000E06515482060A87A214600F099FF1348C3
:102F800060601348A0601348E06013482061134854
:102F900060611348A06113482062134860621348BF
:102FA000A0621348E062134820631348606313482B
:102FB000A0631348E0611348E063204670BD000041
:102FC000E1000120B0090120E12801086929010878
:102FD0007D27010853340108D134010885250108F3
:102FE0004135010809300108B130010859310108A3
:102FF00001320108A9320108513301084D270108A7
:1030000045250108392F0108F0B4C36D00F14404CF
:10301000D3F828C0DCF82C108A8B22F4E0428A8393
:103020008A8B42F4E0428A839D8AB0F84820BCF83B
:103030002870AE1AB6B2BE4284BF6A1E92B21AD8C7
:10304000E488141BA4B2B4EB460F84BFBCF82A403A
:10305000121B0FD83A4492B2AA420CD38C8B24F4A0
:10306000E0448C838C8B44F4C0448C839C8AC2EBF8
:103070004402521E92B29CF81340E403DC609CF8B8
:103080001BC04FEACC3CC3F810C00A64C26DB0F854
:103090004830916AC96A4B63B0F84A308B63B0F824
:1030A0004C00C863907D002818BF0120F0BC704719
:1030B000F0B4C36D00F14404D3F828C0DCF82C1040
:1030C0008A8B22F4E0428A838A8B42F4E0428A832C
:1030D0009D8AB0F84A20BCF82870AE1AB6B2BE423B
:1030E00084BF6A1E92B21AD8A488141BA4B2B4EB8F
:1030F000460F84BFBCF82A40121B0FD83A4492B244
:10310000AA420CD38C8B24F4E0448C838C8B44F443
:10311000C0448C839C8AC2EB4402521E92B29CF83B
:103120000B40E403DC609CF81BC04FEACC3CC3F8C6
:1031300010C00A64C26DB0F84830916AC96A4B6326
:10314000B0F84A308B63B0F84C00C863907D00281B
:1031500018BF0120F0BC7047F0B4C36D00F1440407
:10316000D3F828C0DCF82C108A8B22F4E0428A8342
:103170008A8B42F4E0428A839D8AB0F84A20BCF8E8
:103180002870AE1AB6B2BE4284BF6A1E92B21AD876
:103190002489141BA4B2B4EB460F84BFBCF82A40A8
:1031A000121B0FD83A4492B2AA420CD38C8B24F44F
:1031B000E0448C838C8B44F4C0448C839C8AC2EBA7
:1031C0004402521E92B29CF80B40E403DC609CF86F
:1031D0001BC04FEACC3CC3F810C00A64C26DB0F803
:1031E0004830916AC96A4B63B0F84A308B63B0F8D3
:1031F0004C00C863907D002818BF0120F0BC7047C8
:10320000F0B4C36D00F14404D3F828C0DCF82C10EE
:103210008A8B22F4E0428A838A8B42F4E0428A83DA
:103220009D8AB0F84C20BCF82870AE1AB6B2BE42E7
:1032300084BF6A1E92B21AD8E488141BA4B2B4EBFD
:10324000460F84BFBCF82A40121B0FD83A4492B2F2
:10325000AA420CD38C8B24F4E0448C838C8B44F4F2
:10326000C0448C839C8AC2EB4402521E92B29CF8EA
:103270000B40E403DC609CF813C04FEACC3CC3F87D
:1032800010C00A64C26DB0F84830916AC96A4B63D5
:10329000B0F84A308B63B0F84C00C863907D0028CA
:1032A00018BF0120F0BC7047F0B4C36D00F14404B6
:1032B000D3F828C0DCF82C108A8B22F4E0428A83F1
:1032C0008A8B42F4E0428A839D8AB0F84C20BCF895
:1032D0002870AE1AB6B2BE4284BF6A1E92B21AD825
:1032E000A488141BA4B2B4EB460F84BFBCF82A40D8
:1032F000121B0FD83A4492B2AA420CD38C8B24F4FE
:10330000E0448C838C8B44F4C0448C839C8AC2EB55
:103310004402521E92B29CF80B40E403DC609CF81D
:1033200013C04FEACC3CC3F810C00A64C26DB0F8B9
:103330004830916AC96A4B63B0F84A308B63B0F881
:103340004C00C863907D002818BF0120F0BC704776
:10335000F0B4C36D00F14404D3F828C0DCF82C109D
:103360008A8B22F4E0428A838A8B42F4E0428A8389
:103370009D8AB0F84820BCF82870AE1AB6B2BE429A
:1033800084BF6A1E92B21AD82489141BA4B2B4EB6B
:10339000460F84BFBCF82A40121B0FD83A4492B2A1
:1033A000AA420CD38C8B24F4E0448C838C8B44F4A1
:1033B000C0448C839C8AC2EB4402521E92B29CF899
:1033C0001340E403DC609CF81BC04FEACC3CC3F81C
:1033D00010C00A64C26DB0F84830916AC96A4B6384
:1033E000B0F84A308B63B0F84C00C863907D002879
:1033F00018BF0120F0BC704700B5012183B008461A
:1034000000F0DAF84FF0804000F04BFE684601F023
:1034100047F90020ADF800000121ADF8020001914C
:10342000ADF8080069464FF0804001F0F9F820211E
:10343000480601F0E3F80121880700F016FE4FF07E
:10344000804000F02EFE0021012000F0B5F803B00E
:1034500000BD70B5C06D00220121846AE56A28466E
:1034600000F0A2FF288C20F0550020F4A0602884F2
:103470000121284600F0F6FE48B9A88910F0010F96
:1034800005D10121284600F0EDFE0028F5D00021ED
:10349000284600F0F3FD94F85800022811D1B4F842
:1034A00060100022E06DFDF764FEB4F86C1000229D
:1034B000A06EFDF75EFEB4F878100022606FFDF795
:1034C00058FE288C40F255510843288470BD0000F6
:1034D00070B5C06D1949846A0868E56A20F00C006F
:1034E0000860D1F8000120F00C00C1F800010121B2
:1034F000284600F0B4FD01221146284600F054FF92
:103500000121284600F0BAFD94F85800022818BF9F
:1035100070BDB4F860100122E06DFDF72AFEB4F82A
:103520006C100122A06EFDF724FEB4F87810606FD5
:10353000BDE870400122FDF71CBE000000200140E4
:1035400070B5C06D0121846AE56A284600F087FDE8
:1035500000206863A863E8630121284600F082FE2A
:103560000028F9D00121284600F088FD94F8580081
:10357000022818BF70BDB4F860100122E06DFDF79D
:10358000F8FDB4F86C100122A06EFDF7F2FDB4F85E
:103590007810606FBDE870400122FDF7EABD0000C1
:1035A000044A0029116814BF084321EA0000106092
:1035B0007047000030380240044A0029116814BFE7
:1035C000084321EA000010607047000040380240C4
:1035D000044A0029116814BF084321EA0000106062
:1035E0007047000020380240044A0029116814BFC7
:1035F000084321EA00001060704700004438024090
:10360000044A0029116814BF084321EA0000106031
:1036100070470000243802400149C8647047000028
:1036200000004742254A30B41168254B11F00C01C7
:1036300006D0244C042908BF046002D008291ED0FB
:10364000036011680F2303EA11111F4B595CD0F876
:1036500000C02CFA01F14160D2F800C0072404EA4E
:103660009C2C13F80CC021FA0CFCC0F808C012689E
:1036700004EA52329A5CD140C16030BC70471349B1
:10368000D1F800C0CCF38055D1F800C0002D0CF06B
:103690003F0C14BFB4FBFCF3B3FBFCF3D1F800C048
:1036A0000968CCF3881C03FB0CF3C1F30141491CEE
:1036B0004900B3FBF1F10160C3E7000008380240A4
:1036C0000024F40040787D016800012004380240A5
:1036D00090F87400704701EB410100EB8100808A93
:1036E000704701EB410100EB8100B0F91600704713
:1036F00001EB410100EB8100B0F91800704701EBCC
:10370000410100EB81008282704701EB410100EB37
:103710008100C282704701EB410100EB810002830E
:10372000704770B50446806904F10C05466800686E
:103730003178FEF708FEA0F57F41FF3908D02880D8
:10374000B1896B884A1E03FB0200B0FBF1F0688070
:10375000A069E1894068C289914288BF022004D8EB
:10376000008A88428CBF04200020A88070BD2DE90B
:10377000F0470446806904F10C0547680068397811
:10378000FEF7E1FD4FF6FF7948451CBF28806880B1
:103790000026B889002898BFBDE8F087A06904F129
:1037A0000C05D0F80480006898F80010FEF7CBFDF7
:1037B000484509D02880B8F80C106B884A1E03FBD6
:1037C0000200B0FBF1F06880A169E0894968CA890C
:1037D000904288BF022004D8098A81428CBF04200D
:1037E0000020A880701C86B2B889B042D6D8BDE847
:1037F000F0872DE9F0430446806983B00F464568A1
:103800006846FDF7ADFC2889009003208DF8040080
:1038100069466868FDF73EFCA0690760287860F398
:103820000706A87A314660F30F213846FEF762FD9D
:10383000A06904F10C05476800683978FEF783FD3C
:103840004FF6FF7948451CBF288068800026B8895C
:1038500000289CBF03B0BDE8F083A06904F10C050B
:10386000D0F80480006898F80010FEF76CFD484519
:1038700009D02880B8F80C106B884A1E03FB0200A0
:10388000B0FBF1F06880A169E0894968CA8990427B
:1038900088BF022004D8098A81428CBF04200020FE
:1038A000A880701C86B2B889B042D6D803B0BDE8F3
:1038B000F083000010B50C4602F08CF9084B197823
:1038C000002903BF074A01211970002254600649EC
:1038D00082610160054941600549816010BD0000B9
:1038E000C8000120CC000120F33701086F37010820
:1038F000233701082DE9F041264E0446012A08BF6E
:10390000254E94F81E120320012904D002290DD05F
:10391000032913D03BE0022A39D194F81D11002964
:103920001CBF022084F81E0231D104E094F81D115E
:10393000891C91422BD184F81E0228E094F81D01C5
:10394000C01C904223D10027144E84F81E723A46C0
:1039500040F22551124802F07AF80520A4F824021A
:1039600014F58E7510D02846FCF754FD6B78A91C11
:10397000595C884208D1A4F8247294F81C11AA1C3E
:10398000A068FDF795FE02E0A068FEF783F83046D8
:10399000BDE8F08126610108286101082A6101085B
:1039A00000100140C26810472DE9F0410546406A09
:1039B0002A6988468679012728469047002804BF4F
:1039C0003446002725D0B8F90010002095F8224091
:1039D0000029BABF494289B2B8F800106A6A538810
:1039E0008B4238BF012093888B4288BF0120B5F9F4
:1039F00020100029BABF494289B2298C12898A4213
:103A00000CD301280AD0B44238BF0024B44208BF06
:103A1000002785F822403846BDE8F081B4423CBF1B
:103A2000601CC4B2F2E7002180F8221081680847C8
:103A3000B0F91C007047B0F918007047B0F91C10BD
:103A4000406AC1EBC131B0F9020091FBF0F000B265
:103A50007047416808470000094B0246197803295E
:103A600028BF002009D201EB410000EBC100DFF8C4
:103A700014C0491C0CEB80001970426270470000B2
:103A8000D4000120CC0801204269104770B50446DB
:103A9000007800280CBFA5686568A089012804D9B2
:103AA000A169A0F101000D4405E005D160884FEA4D
:103AB00000454FF00000A0812078012805D0E817CC
:103AC00005EB10400014A56070BDE81705EB104031
:103AD00006146069FFF7ACFF301A01B22069FEF7E7
:103AE00043FB0104C4E9015170BD0178012918BFED
:103AF000704700690021FEF7A5BB2DE9F0410D4696
:103B00000178C66990460446012761B16069FFF7F4
:103B10008FFF010461607188A942A4BFB6F9081043
:103B20008D4214DA11E0A068C11700EB11407189D1
:103B30000014A94205DAB6F90C1000278D4220DAEC
:103B400003E0B6F90C108D4208DA002719E0B188BD
:103B50008D42BCBFB6F90610A942F6DBB8F1000FE2
:103B600012D0658031884FF47A7201FB08F1B1FB05
:103B7000F2F1491C89B2281A000490FBF1F0A181EE
:103B8000A0613846BDE8F08121782804012914BFDE
:103B9000A06060600020A081F2E7C269508A60F3F3
:103BA0000F010846918A61F31F407047C069408841
:103BB00070474068C11700EB114000147047C0699E
:103BC000B0F910007047C069B0F90800704740694B
:103BD0007047C369C0E90412997B0170198A09040E
:103BE0004160598A0904816000214180818181619D
:103BF00070470000054902460878002803BF0448C2
:103C000001230B700020C26170470000D500012025
:103C10005009012001700021818170474161704786
:103C2000027800210B2A04D1092101700021818032
:103C3000012108467047B0F802C003784CEA010C35
:103C4000A0F802C0B0F804C04CEA010181804188AC
:103C5000914341800A2B05D011B10A2101700B4616
:103C6000184670470029FBD10B2101700B46F7E77E
:103C70008188408841EA0040704700787047002101
:103C80000170418081807047064A1178022924BF63
:103C90000020704701EB4100491C1170024B03EBFF
:103CA00040007047D6000120700901200246002024
:103CB00092F800C0BCF1130F6AD2DFE80CF00D27B8
:103CC0003C3F575C6164676E69690A2D3237484D25
:103CD0005200002965D05BE003291CBF01290C2993
:103CE0005FD0072908BF70475188BCF10A0F41F027
:103CF00080015180918841F080019180518852D09B
:103D0000002914BF0A2170471170704707291CBF92
:103D10000D290E2945D03BE00E2918BF072940D0B8
:103D200036E00F2918BF07293BD031E0022918BF20
:103D3000072936D02CE0072933D029E0072918BFFE
:103D400010292ED0112918BF01292AD020E01129CD
:103D500018BF072925D01BE0122918BF072920D03A
:103D600016E0042918BF07291BD011E0052918BF48
:103D7000072916D00CE0062918BF072911D007E043
:103D800007290ED004E008290BD001E0092908D04A
:103D9000032914BF01297047A3E7002918BF0C2984
:103DA000F6D10120B0E700290CBF0B217047ABE72B
:103DB000826A908C60F30F010846D18C61F31F403A
:103DC0007047806AD0F838017047816AD1F84C0199
:103DD000D1F814C08969837F4CFA03F060F30F02B5
:103DE0001046194161F31F407047806AD0F83401D2
:103DF0007047806A43880B80C08810807047806A53
:103E00004180C2807047826A108D60F30F010846BE
:103E1000518D61F31F407047806AD0F8B800704739
:103E2000816AD1F8C800D1F818C0C96990F8363055
:103E30004CFA03F060F30F021046194161F31F4082
:103E40007047806AD0F8B4007047806A43880B805E
:103E5000C0881080704770B5846A15460E46606948
:103E6000FEF7C5F930806069FEF7BEF9288070BDA5
:103E7000806A4180C280704770B5846A1546606967
:103E8000FEF7E4F929466069BDE87040FEF7DCB949
:103E90007047437CD91C914204BF002180F8121165
:103EA000017CD0F808C000F112026046FDF716BE92
:103EB000014A42F82010704758060120014A42F892
:103EC000201070477C00012010B500F087F8BDE895
:103ED0001040FDF761B90000374882B0016841F435
:103EE000700101603548016841F001010160344909
:103EF00000230B60026822F4102222F0807202601C
:103F000000F1040C2F4ACCF80020026822F4802231
:103F100002600A1D136001930093026842F480322C
:103F20000260026802F400320092019A521C01926F
:103F3000009A1AB9019AB2F5A04FF2D1026812F4B0
:103F4000003F08BF009331D0012200921E4A13683F
:103F500043F0805313601D4A136843F440431360D9
:103F60000A680A600A6842F400420A600A6842F479
:103F7000A0520A60164ACCF80020026842F0807213
:103F80000260026812F0007FFBD0124A40F2057016
:103F90001060086820F003000860086840F0020024
:103FA0000860086800F00C000828FAD10A494FF0B0
:103FB0000060086002B0704788ED00E00038024001
:103FC00008380240103000244038024000700040A1
:103FD00019544007003C024008ED00E010B500F025
:103FE000CBFBFDF7C7FD01F0EDF80748418811B1A3
:103FF0004188491E41800188002908BF10BD018801
:10400000491E018010BD0000BC00012003494FF68D
:10401000FE70088200210846FCF7DEBE0000014069
:1040200000210220FCF7D8BE0A884B88B1F806C0F0
:104030001A438B8843EA0C031A430B891A434B89B2
:1040400089891A431143A0F8441070470021018068
:1040500041808180C1800181418181817047C94354
:1040600001827047C943018270470029018814BF4B
:1040700041F0010121F00101018070470029B0F8F1
:10408000441014BF41F40041C1F30E01A0F84410E4
:104090007047002A828914BF114322EA01018181FD
:1040A000704710B5A0F18041B1F5803132D0B0F148
:1040B000804F43D011F57C4136D0B1F5806147D0B7
:1040C000B1F580614ED0B1F5806155D0B1F5806118
:1040D0005CD0B1F5704163D0B1F570516AD0B1F5E3
:1040E000806172D0B1F580617AD011F598317DD0C0
:1040F000B1F580617BD0B1F5806118BF10BD0121A1
:104100000802FFF765FABDE8104000214FF4807007
:10411000FFF75EBA01210846FFF772FA0021BDE8F9
:1041200010400120FFF76CBA01210220FFF750FA7E
:104130000021BDE810400220FFF74ABA01210846DD
:10414000FFF746FA0021BDE810400120FFF740BA12
:1041500001210420FFF73CFA0021BDE810400420B3
:10416000FFF736BA01210820FFF732FA0021BDE837
:1041700010400820FFF72CBA01211020FFF728FA81
:104180000021BDE810401020FFF722BA01212020B5
:10419000FFF71EFA0021BDE810402020FFF718BAF3
:1041A00001210220FFF72CFA0021BDE81040022077
:1041B000FFF726BA01210804FFF722FABDE81040F4
:1041C00000214FF48030FFF71BBA01214804FFF7AC
:1041D00017FABDE8104000214FF40030FFF710BA85
:1041E00001218804FFF70CFA002101E006E00FE04E
:1041F000BDE810404FF48020FFF702BA01214020B3
:10420000FFF7E6F90021BDE810404020FFF7E0B9D4
:1042100001218020FFF7DCF90021BDE8104080205B
:10422000FFF7D6B930B40589B0F818C0048C25F072
:10423000070529432CF0030C2CF4407C40F20115B7
:104240004CEA050C4FF6FF7505EA031324F022042F
:104250001A4322430181A0F818C0028430BC704781
:104260008182704702460020128A0A4218BF01204C
:10427000704770B40D884C88B1F804C00B894FF6B4
:10428000FF7255B3042D44D0082D058C67D025F45A
:1042900080550584868B058C26F4734602EA0C2C27
:1042A0004CEA060C02EA033343EA0C0302EA043444
:1042B00025F4204C4CEA040C4CF4805C8383A0F879
:1042C00020C08979838B23F440638383838B02EA44
:1042D00001211943818370BC7047058C25F00105CD
:1042E0000584068B058C02EA031226F0F30642EAE7
:1042F0000C02324325F00A03234343F001030283F7
:104300000384C988028B22F00C020283028B1143C2
:1043100022E0058C25F010050584068B058C26F41B
:10432000734602EA0333334302EA0C2C4CEA0303DC
:1043300002EA041425F0A00C4CEA040C4CF0100C1A
:104340000383A0F820C08979038B23F4406303839F
:10435000038B02EA01211943018370BC704725F4E5
:1043600080750584868B058C02EA042402EA031218
:1043700026F0F30642EA0C02324325F4206323437D
:1043800043F4807382830384C988828B22F00C02F9
:104390008283828B11439DE70021018041800122AD
:1043A0008280C18001817047002A828914BF114335
:1043B00022EA01018181704710B4028C22F00102CF
:1043C0000284038C8288B0F818C00C882CF0730C1F
:1043D00044EA0C0C8C8923F0020323434C882343CA
:1043E000A0F18044B4F580341CBFA0F18044B4F542
:1043F00082340DD1CC8923F0080323438C8823F029
:10440000040323430C8A22F4407222434C8A224341
:104410008280A0F818C089684163038410BC70478B
:10442000028B22F0080211430183704730B4028CE2
:1044300022F010020284038CB0F804C0028B0D88B5
:1044400022F4E6444FF6FF7202EA05252C438D89DB
:1044500023F0200302EA05152B434D8802EA0515D7
:104460002B43A0F18045B5F580351CBFA0F18045F8
:10447000B5F5823517D1CD8923F0800302EA051501
:104480002B438D8823F0400302EA05152B430D8A48
:104490002CF4406C02EA850545EA0C0C4D8A02EAD0
:1044A000850242EA0C0CA0F804C004838968816389
:1044B000038430BC7047028B4FF6FF7322F4006216
:1044C00003EA012111430183704730B4028C22F4C6
:1044D00080720284028C8388B0F81CC00C882CF097
:1044E000730C44EA0C0422F4007C8D894FF6FF72B1
:1044F00002EA052545EA0C0C4D8802EA052545EA45
:104500000C0CA0F18045B5F580351CBFA0F18045AD
:10451000B5F5823517D1CD892CF4006C02EA05255A
:1045200045EA0C0C8D882CF4806C02EA052545EADE
:104530000C0C0D8A23F4405302EA05152B434D8AD7
:1045400002EA05121343838084838968C163A0F85B
:1045500020C030BC7047828B22F008021143818357
:10456000704730B4028C22F480520284048C82881A
:10457000838B0D8823F4E64C4FF6FF7303EA052581
:1045800045EA0C0C8D8924F4005403EA05352C43CC
:104590004D8803EA05352C43A0F18045B5F58035FB
:1045A0001CBFA0F18045B5F5823505D10D8A22F4F6
:1045B000804203EA85131A438280A0F81CC08968F0
:1045C0000164048430BC7047828B4FF6FF7322F481
:1045D000006203EA012111438183704700210180B9
:1045E0004180818081608181C181018241827047E7
:1045F000028922F07002114301817047828822F003
:10460000700282808288114381807047028922F083
:10461000070202810289114301817047416270479C
:1046200010B402881C4BDFF874C0984218BF604574
:1046300011D0B0F1804F1CBFA0F18044B4F580646C
:1046400009D0A0F18044B4F500641CBFA0F18044FF
:10465000B4F5406403D14C8822F070022243A0F1EB
:104660008044B4F580541CBFA0F18044B4F5A0543C
:1046700003D00C8922F44072224302804A68C2624D
:104680000A880285984212BF6045897A0186012115
:10469000818210BC7047000000000140000401400E
:1046A0004FF0FF3141600021018001814180817222
:1046B000704700002DE9F84F2B484FF0000949469C
:1046C0000068FFF76FF929480068FFF780FAFFF7E5
:1046D000B2F9DFF89C8006466946D8F80000FDF77D
:1046E00034FE0098FCF7F8FE07463146FCF71AFF47
:1046F000204C054629B2B4F91000411AA8F1100067
:104700000068FDF731FD60F30F0AB4F91200A0EB69
:104710002541A8F10C000068FDF726FD514660F325
:104720001F4108F1100061610068FBF7A1FE3146EE
:10473000FCF738FF82465146D8F80000FDF72AFE04
:10474000009921606760E560C4F818A0E68301283D
:1047500006D1A8F11C00002200680121FFF76BFAC6
:104760004846BDE8F88F0000380001201C000120F9
:10477000340001202C01012070B51D480024006880
:1047800000F03EF81B4D06462868FDF7B5FD0643D0
:10479000A5F10800006801F012FA40EA0601C843DA
:1047A000A5F11C0682B23068FFF745FA3068FFF7C2
:1047B00064FA0A2805D00B2804BF2868FDF7B1FE6B
:1047C00009E02868FDF7ADFE2046FCF7B7FB0A4874
:1047D0000068FDF73FFC094C6078012818BF70BDE8
:1047E00021782868FDF7AFFD20810220607070BD40
:1047F000300001203400012040000120040001208D
:1048000081680847C16808470268104705490246A1
:104810000878002803BF044801230B700020426180
:1048200070470000D70001207C09012070B5026BA1
:1048300090F83C0001240A2952F820502CD2DFE8DD
:1048400001F02B1B17052C2C131F23272846FCF7E0
:10485000E9FD062821D12846FCF7C3FD01460022C8
:104860002846FCF7ABFD18E02846FCF7DBFD18B145
:104870002846FCF72DFE10E02846FCF71EFE0CE053
:104880002846FCF7ABFD08E02846FCF758FD04E09D
:104890002846FCF74BFD00E00024204670BD0000D8
:1048A00010B5036B90F83C0053F82000044B83FBD9
:1048B0000131A1EBE17109B2FCF780FD012010BDCF
:1048C000ABAAAA2A10B5036B90F83C0053F820005D
:1048D000FCF77BFD012010BD034666201A69002A03
:1048E00008BF70471846104770B502462C300B467B
:1048F000017CD0F808C084B04FF0FF345CF8215040
:10490000D0F804C05F2B5CF8216080F00384DFE8FE
:1049100003F030333A41FD464B4FFC53585FFB6682
:104920006A6E75AE93FAF9F8F7F6F5F4F3F2F1F072
:10493000EFEEEDECEBEAE9E8E7EEEDFCFBE6E5E4B3
:10494000E3E2E1E0DFDEDDDCDBDAD9D8D7D6D5D4AF
:10495000D3D2D1FBD0CFCECDCCCBCAC9C8C7C6C568
:10496000C5C5C5C5C5C5C5C5C5C5C5C5C5C4C5C3FA
:10497000C2000C4600F0CEBB2846FDF7D8F8FFF782
:1049800077F900F03BB92846FDF7D1F8FFF775F944
:1049900000F034B93046FCF72CFD00F02FB9284662
:1049A000FDF7BDF800F009B92846FDF7B8F80BE0AF
:1049B0002846FDF7B4F80EE02846FDF7AAF800F007
:1049C000FCB82846FDF7A5F8FDF70EFC00F016B977
:1049D0002846FDF79EF8FDF7BBFB00F00FB928460F
:1049E000FDF795F8E9E02846FDF791F8ECE7284651
:1049F000FDF78DF8FDF7ACFB00F000B9C06850F88A
:104A0000214000200921B1EB147F04BF2846FDF7A7
:104A10008AF8C4F30361092904BF2846FDF781F829
:104A200000281CBF01AA694602D000BFFFF70DFA9B
:104A3000BDF9004000F06EBBC06850F82140002076
:104A40000A21B1EB147F04BF2846FDF76CF8C4F3CC
:104A500003610A2904BF2846FDF763F800281CBF3C
:104A600001AA6946E4D000BFFFF7C3F9E0E7C068D8
:104A700050F8214000200921B1EB147F04BF2846E3
:104A8000FDF751F8C4F30361092904BF2846FDF777
:104A900048F800283BE073E163E130E38BE227E371
:104AA0001FE317E30FE305E3FBE2F1E2D8E2C1E223
:104AB000AAE293E289E27FE276E26FE257E228E23D
:104AC000F9E1C7E197E16AE13AE20BE2DBE1A8E153
:104AD0007BE12EE111E1F7E0F1E0EBE0E5E0DFE082
:104AE000CFE0C9E0C3E0BDE0B4E0AAE0A4E09EE00E
:104AF00095E08EE085E07CE075E06EE064E05FE0EC
:104B000058E022E03DE007E0C5E0BFE0FCE21CBF6A
:104B10006A4601A98CD089E7C06850F8214000207E
:104B20000A21B1EB147F04BF2846FCF7FCFFC4F355
:104B300003610A2904BF2846FCF7F3FF00281CBFC5
:104B40006A4601A93FF474AF8EE7C06850F821406F
:104B500000200921B1EB147F04BF2846FCF7E3FFD6
:104B6000C4F30361092904BF2846FCF7DAFF0028D3
:104B70001CBF01AA69463FF45BAF00BFFFF76BF9AA
:104B800056E7C06850F8214000200921B1EB147F9E
:104B900004BF2846FCF7C7FFC4F30361092904BF1B
:104BA0002846FCF7BEFF00281CBF6A4601A93FF457
:104BB0003FAFE3E72846FCF7A8FFFDF718FB1DE031
:104BC0002846FCF7A2FFFFE62846FCF79CFF0028DA
:104BD00000F0A082FCF7EFF910E02846FCF78FFF09
:104BE00000F0EFFF0AE02846FCF7A3FFFFF70AFEFC
:104BF00004E02846FCF78FFFFDF73FFA044600F07B
:104C000089BA136900216620002BF7D01046984717
:104C1000F4E7136901216620002BF7D1EEE7304657
:104C2000FCF7DFFB00EB4000440000F073BA3046B5
:104C3000FCF7E7FB00F04CBA3046FCF7E2FB00F073
:104C40004EBA2846FCF75FFF002800F06382FCF7AD
:104C5000A7F9D3E72846FCF760FFFEF739FD0446C5
:104C600000F058BA3046FCF7C6FB00F031BA3046C7
:104C7000FCF7C1FB00F033BA3046FCF7BFFB00F095
:104C800027BA3046FCF7BAFB00F029BA3046FCF7E9
:104C9000BBFB00F01DBA3046FCF7B6FB00F01FBAB4
:104CA0003046FCF7C9FB00F013BA3046FCF7C4FBF2
:104CB00000F015BA3046FCF7BCFB00F009BA3046EC
:104CC000FCF7B7FB00F00BBAC06850F82160002079
:104CD0000221B1EB167F19BF0121B1EB167F2846E7
:104CE000FCF721FFC6F30361022912BF0129284600
:104CF000FCF717FF90BB00F00DBAC06850F82160B8
:104D000000200221B1EB167F19BF0121B1EB167F04
:104D10002846FCF708FFC6F30361022912BF0129E8
:104D20002846FCF7FEFE002800F0F481FEF786FE20
:104D300064E7C06850F8216000200921B1EB167FBC
:104D400004BF2846FCF7EFFEC6F30361092904BF40
:104D50002846FCF7E6FE002800F0DC81FEF76BFE3B
:104D60004CE7C06850F821000B21B1EB107F40F0F8
:104D7000D1812846FCF7D7FE0028EFD100F0CAB950
:104D8000C06850F821000B21B1EB107F40F0C281C8
:104D90002846FCF7C8FE0028C8D100F0BBB9C0689F
:104DA00050F8216000200A21B1EB167F04BF28468D
:104DB000FCF7B9FEC6F303610A2904BF2846FCF7D5
:104DC000B0FE0028CAD100F0A5B9C06850F8216033
:104DD00000200921B1EB167F04BF2846FCF7A3FE93
:104DE000C6F30361092904BF2846FCF79AFE002890
:104DF0009CD100F08FB9C06850F8216000200A21D2
:104E0000B1EB167F04BF2846FCF78DFEC6F30361A5
:104E10000A2904BF2846FCF784FE002886D100F04A
:104E200079B9C06850F8216000200921B1EB167FE4
:104E300004BF2846FCF777FEC6F30361092904BFC7
:104E40002846FCF76EFE002800F06481FEF7E8FFBC
:104E500000F03EB9C06850F8216000200A21B1EB93
:104E6000167F04BF2846FCF75EFEC6F303610A29DD
:104E700004BF2846FCF755FE002800F04B81FEF7E2
:104E8000A4FF00F025B9C06850F821600020092176
:104E9000B1EB167F04BF2846FCF745FEC6F303615D
:104EA000092904BF2846FCF73CFE002800F03281A7
:104EB000FEF7B6FF13E1C06850F8216000200A2118
:104EC000B1EB167F04BF2846FCF72DFEC6F3036145
:104ED0000A2904BF2846FCF724FE00286BD0FEF701
:104EE00074FFFCE0C06850F8216000200921B1EB9C
:104EF000167F04BF2846FCF716FEC6F30361092996
:104F000004BF2846FCF70DFE002854D0FEF77BFFB7
:104F1000DEE0C06850F8216000200A21B1EB167F66
:104F200004BF2846FCF7FFFDC6F303610A2904BF4E
:104F30002846FCF7F6FD00283DD0FEF739FFC7E014
:104F4000C06850F8216000200921B1EB167F04BF32
:104F50002846FCF7E8FDC6F30361092904BF28468B
:104F6000FCF7DFFD002826D0FEF74DFFB7E0C06854
:104F700050F8216000200A21B1EB167F04BF2846BB
:104F8000FCF7D1FDC6F303610A2904BF2846FCF7EC
:104F9000C8FD00280FD0FEF70BFFA0E093694BB1CE
:104FA00000211046984729E693691BB1012110465C
:104FB000984723E60024ADE02846FCF7B6FDFEF74F
:104FC000F5FD00EB40004400A4E02846FCF7ADFDF1
:104FD000FEF7F9FD00EB400044009BE0C06850F88C
:104FE000216000200921B1EB167F04BF2846FCF7A1
:104FF0009AFDC6F30361092904BF2846FCF791FD19
:10500000E8B3FEF709FF6AE0C06850F821600020AD
:105010000921B1EB167F04BF2846FCF784FDC6F3D7
:105020000361092904BF2846FCF77BFD38B3FEF76E
:1050300008FF54E0C06850F8216000200A21B1EB5D
:10504000167F04BF2846FCF76EFDC6F303610A29EC
:1050500004BF2846FCF765FD88B1FEF7B2FE3EE0CE
:10506000C06850F8216000200A21B1EB167F04BF10
:105070002846FCF758FDC6F303610A2900E028E042
:1050800004BF2846FCF74DFD18B3FEF7AEFE26E040
:105090002846FCF736FD01466846FBF73FFF019CBA
:1050A00038E02846FCF72DFD01466846FBF736FF41
:1050B000009C2FE02846FCF724FD01466846FBF7DC
:1050C0002DFF029C26E02846FCF71BFDFBF72FFF77
:1050D00004B21FE02846FCF714FDFBF728FF041478
:1050E00018E02846FCF70DFDFBF71FFF04B211E0A6
:1050F0002846FCF706FDFBF718FF04140AE03046CB
:10510000FCF777F9012808D03046FCF788F900EB66
:105110004000440004B0204670BD3046FCF777F9EB
:1051200000EB40004400F5E72DE9F0478946416B6C
:1051300090F83C001E4617460124DDF8208051F807
:105140002000FCF7EAFC050008BF00240ED0494609
:10515000FEF7C1FA388049462846FEF7C2FA308089
:1051600049462846FEF7C4FAA8F800002046BDE8E4
:10517000F087DDF800C000F82C1F0021C0E90123F2
:105180000174C0F80CC07047016B90F83C0051F8F6
:105190002000FCF75EB90000084B0246197803298D
:1051A00028BF002007D201EBC100DFF814C0491C62
:1051B0000CEBC000197002647047000080000120F1
:1051C000500501200648418811B14188491E41809F
:1051D0008188012998BF70478188491E8180704766
:1051E0008C000120044900208A88012A18BF7047DA
:1051F00000208880012070478C00012001494F2049
:10520000888070478C000120014900208880704709
:105210008C000120D0F830C090F83C0061F30F03FF
:1052200019465CF8200062F31F41FCF739B9C368E6
:10523000002B08BF704718472DE9F04103462C307A
:1052400015460A46017CD0F808C0012684B05CF8F7
:105250002180D0F804C02CB2102A5CF821704FF0E5
:10526000090C77D00ADC36D2DFE802F02C3535386D
:105270003551596169757D858D98A0A8172A00F070
:1052800077810ADCA2F111034FF00A02062B22D229
:10529000DFE803F0DFBEFDFCFBFA472A00F08A815D
:1052A00009DC182A00F06B81412A00F07181462A3E
:1052B00000F073810FE0482A00F08B815B2A00F038
:1052C000978108E013F82C1FE8B20126814288BFBD
:1052D000187400F29781002600F094B915F0FF0FC2
:1052E00007D13846FCF7A1F8014600223846FCF702
:1052F0006CF8E8B2012840F085813846FCF78FF859
:10530000014600223846FCF759F800F07BB94046C8
:10531000FCF705FC2146FCF799FF00F073B9404605
:10532000FCF7FDFB2146FCF78FFF00F06BB9404610
:10533000FCF7F5FB2146FCF711FF00F063B9384696
:10534000FCF762F864F30F0001463846FCF7A8F852
:1053500000F058B93AE04046FCF7DBFB2146FCF789
:1053600075FF00F04FB94046FCF7D3FB2146FCF730
:105370006BFF00F047B94046FCF7CBFB2146FCF73A
:10538000EDFE00F03FB93846FCF73EF864F31F40ED
:1053900001463846FCF784F800F034B94046FCF783
:1053A000B6FB2146FCF752FF00F02CB94046FCF753
:1053B000AEFB2146FCF748FF00F024B94046FCF75D
:1053C000A6FB2146FCF7CAFE00F01CB9C068002508
:1053D00050F82170BCEB177F03D14046FCF7A3FBCC
:1053E0000546C7F30360092803D14046FCF799FB43
:1053F0000546002D00F006816A4601A92846FEF701
:1054000024FDBDF9002021462846FEF731FDF9E0D4
:10541000C068002550F82170B2EB177F03D14046D9
:10542000FCF781FB0546C7F303600A2803D1404619
:10543000FCF777FB0546002D51D06A4601A92846A6
:10544000FEF7D7FCBDF9002021462846FEF7D7FC21
:10545000D8E0C068002550F82170BCEB177F03D15D
:105460004046FCF760FB0546C7F30360092803D1FB
:105470004046FCF756FB0546002D30D001AA694690
:105480002846FEF7E2FC03E06BE04AE028E006E095
:105490002246BDF900102846FEF7EAFCB2E0C068DB
:1054A000002550F82170B2EB177F03D14046FCF77E
:1054B0003AFB0546C7F303600A2803D14046FCF7D0
:1054C00030FB0546002D0AD001AA69462846FEF7A2
:1054D00090FC2246BDF900102846FEF790FC91E0B2
:1054E000C068002550F82170BCEB177F03D14046FF
:1054F000FCF719FB0546C7F30360092803D14046B2
:10550000FCF70FFB0546002D7CD001AA6946284612
:10551000FEF7A1FC2246BDF900102846FEF7ACFCC0
:1055200070E0C068002550F82170BCEB177F03D1F4
:105530004046FCF7F8FA0546C7F30360092803D193
:105540004046FCF7EEFA05460DB36A4601A9284627
:10555000FEF781FCBDF9002021462846FEF78CFCB1
:1055600050E04046FCF7D1FA2146FCF76FFE49E0D7
:105570004046FCF7CAFA2146FCF766FE42E0404688
:10558000FCF7C1FA00281CBFA9B2FBF716FD39E0F1
:1055900021463846FBF78EFF34E04046FCF7B1FA6F
:1055A000044601466846FBF7B9FC2A462046029BA2
:1055B00000990BE04046FCF7A4FA04460146684611
:1055C000FBF7ACFCDDE9012329462046FBF7B1FCE3
:1055D00018E04046FCF795FA044601466846FBF79A
:1055E0009DFCDDE900122B462046FBF7A2FC09E0FA
:1055F0000648002280FB0510A0EBE07001B238469F
:10560000FBF7DCFE04B03046BDE8F081ABAAAA2A65
:105610002DE9F0410F46416B90F83C001C461646C0
:10562000069D51F82000FCF778FA8046324639464C
:10563000FEF765F8224639464046FEF766F82A46E8
:1056400039464046FEF767F80120BDE8F0810000CA
:105650002DE9F8431E46DDE9089817460D4610F07F
:10566000020F08BFBDE8F8830F490020FCF70CF8D3
:105670000E4C60610E4800F05FFAE0600D48FBF7E9
:1056800029FC2061E168FBF711FCD4E904104346D2
:10569000A269FBF7DDFF00954B463246394660694B
:1056A000FFF767FDBDE8F883406101088C00012029
:1056B000446101086861010810B51D4C2088A2886A
:1056C00010F0080F07D0FFF79FFD002202211046BF
:1056D000FBF78AFB1DE0218811F0080F08D0FFF7C7
:1056E00093FD002202211046FBF77EFBA08810E00C
:1056F00010F0200F0DD000210846FBF775FB008845
:10570000012804D0022808BFFFF77EFD01E0FFF763
:1057100075FD40F22771204600F015F8002808BFFB
:1057200010BD0022BDE8104001211046FBF75CBB14
:10573000001001400029818914BF41F4005121F477
:1057400000518181704710B401F01F020124002331
:10575000C1F3421C04FA02F2BCF1010F04BFB0F81D
:105760000CC00CEA020208D0BCF1020F0CBFB0F86A
:1057700010C0B0F814C00CEA0202090A008804FA4A
:1057800001F10840002A1CBF00280123184610BC64
:10579000704700002DE9F0470446806882B0102869
:1057A0004FF0010136D0FDF707FFE169206800F0F6
:1057B00067F9814D20680022804E814FDFF8048216
:1057C000DFF80492DFF804A2A8421ABFB042B84240
:1057D000072204D040451ABF484550450822208A78
:1057E000B0F5807F08BF08214AD023DC102808BF0D
:1057F000042145D011DC012841D0022808BF012135
:105800003ED0042808BF02213AD0082808BF03214F
:1058100036D034E0FDF7E8FEC7E7202808BF0521B1
:105820002ED0402808BF06212AD0802808BF072193
:1058300026D024E0B0F5805F08BF0C2120D00FDC1B
:10584000B0F5007F08BF09211AD0B0F5806F08BFFE
:105850000A2115D0B0F5006F08BF0B2110D00EE063
:10586000B0F5005F08BF0D210AD0B0F5804F08BF2A
:105870000E2105D0B0F5004F08BF0F2100D0002148
:10588000E068FBF74FFC20680022A8421ABFB04234
:10589000B842072204D040451ABF48455045082267
:1058A000208BB0F5807F08BF082147D020DC10286E
:1058B00008BF042142D00EDC01283ED0022808BFD8
:1058C00001213BD0042808BF022137D0082808BF97
:1058D000032133D031E0202808BF05212ED04028F5
:1058E00008BF06212AD0802808BF072126D024E03F
:1058F000B0F5805F08BF0C2120D00FDCB0F5007F31
:1059000008BF09211AD0B0F5806F08BF0A2115D051
:10591000B0F5006F08BF0B2110D00EE0B0F5005FAE
:1059200008BF0D210AD0B0F5804F08BF0E2105D069
:10593000B0F5004F08BF0F2100D000216069FBF7D0
:10594000F1FB00208DF806008DF8070002208DF88D
:1059500004008DF80500208A00906946E068FBF796
:1059600099FB208B009069466069FBF793FB206AE6
:10597000C078012818D1E069807A10F0040F05D0B2
:10598000012240F22551206800F061F8E069807A38
:1059900010F0080F05D0002240F22771206800F0B7
:1059A00056F8206AFCF792FB01212068FFF7C2FE3F
:1059B00002B0BDE8F0870000001001400044004044
:1059C00000480040004C00400050004000140140DE
:1059D00070B50446002549B1012917D0022931D0FC
:1059E000032904BF006AFBF794FA2EE0216941B352
:1059F000E08AA38A984228D2431CE3820A54E28AAE
:105A00002169206AFDF776FF05461EE0E08BA2695A
:105A1000411CE183115CE0680068006800F0BAF89E
:105A2000A08BE18B884210D8E068002240F22771F9
:105A30000068006800F00BF8E28BA169206AFEF7AD
:105A400028FA02E0006AFBF761FA284670BDC1F34C
:105A5000421301F01F014FF0010C0CFA01F1012B70
:105A600008BF0C3003D0022B0CBF10301430002ABA
:105A7000026814BF114322EA01010160704700006F
:105A800030B50446008A85B00D46C98820F44050E0
:105A900008432082A089A9882A8920F40370114331
:105AA0006A8920F4A05010430843A081A08AA989E4
:105AB00020F440700843A0826846FDF7B3FDA4F1CE
:105AC0008040B0F588301BBFA4F18040B0F58A302B
:105AD00003980298A18911F4004F00EBC00101EB7B
